{
  "_format": "hh-sol-artifact-1",
  "contractName": "TurmericSupplyChain",
  "sourceName": "contracts/TurmericSupplyChain.sol",
  "abi": [
    {
      "inputs": [
        {
          "internalType": "address",
          "name": "admin",
          "type": "address"
        }
      ],
      "stateMutability": "nonpayable",
      "type": "constructor"
    },
    {
      "inputs": [],
      "name": "AccessControlBadConfirmation",
      "type": "error"
    },
    {
      "inputs": [
        {
          "internalType": "address",
          "name": "account",
          "type": "address"
        },
        {
          "internalType": "bytes32",
          "name": "neededRole",
          "type": "bytes32"
        }
      ],
      "name": "AccessControlUnauthorizedAccount",
      "type": "error"
    },
    {
      "anonymous": false,
      "inputs": [
        {
          "indexed": true,
          "internalType": "string",
          "name": "unique_packet_id",
          "type": "string"
        },
        {
          "indexed": false,
          "internalType": "string",
          "name": "batch_id",
          "type": "string"
        },
        {
          "indexed": false,
          "internalType": "string",
          "name": "current_stage",
          "type": "string"
        }
      ],
      "name": "PacketRegistered",
      "type": "event"
    },
    {
      "anonymous": false,
      "inputs": [
        {
          "indexed": true,
          "internalType": "string",
          "name": "unique_packet_id",
          "type": "string"
        },
        {
          "indexed": false,
          "internalType": "string",
          "name": "previous_stage",
          "type": "string"
        },
        {
          "indexed": false,
          "internalType": "string",
          "name": "new_stage",
          "type": "string"
        }
      ],
      "name": "PacketStageUpdated",
      "type": "event"
    },
    {
      "anonymous": false,
      "inputs": [
        {
          "indexed": true,
          "internalType": "bytes32",
          "name": "role",
          "type": "bytes32"
        },
        {
          "indexed": true,
          "internalType": "bytes32",
          "name": "previousAdminRole",
          "type": "bytes32"
        },
        {
          "indexed": true,
          "internalType": "bytes32",
          "name": "newAdminRole",
          "type": "bytes32"
        }
      ],
      "name": "RoleAdminChanged",
      "type": "event"
    },
    {
      "anonymous": false,
      "inputs": [
        {
          "indexed": true,
          "internalType": "bytes32",
          "name": "role",
          "type": "bytes32"
        },
        {
          "indexed": true,
          "internalType": "address",
          "name": "account",
          "type": "address"
        },
        {
          "indexed": true,
          "internalType": "address",
          "name": "sender",
          "type": "address"
        }
      ],
      "name": "RoleGranted",
      "type": "event"
    },
    {
      "anonymous": false,
      "inputs": [
        {
          "indexed": true,
          "internalType": "bytes32",
          "name": "role",
          "type": "bytes32"
        },
        {
          "indexed": true,
          "internalType": "address",
          "name": "account",
          "type": "address"
        },
        {
          "indexed": true,
          "internalType": "address",
          "name": "sender",
          "type": "address"
        }
      ],
      "name": "RoleRevoked",
      "type": "event"
    },
    {
      "inputs": [],
      "name": "DEFAULT_ADMIN_ROLE",
      "outputs": [
        {
          "internalType": "bytes32",
          "name": "",
          "type": "bytes32"
        }
      ],
      "stateMutability": "view",
      "type": "function"
    },
    {
      "inputs": [],
      "name": "DISTRIBUTOR_ROLE",
      "outputs": [
        {
          "internalType": "bytes32",
          "name": "",
          "type": "bytes32"
        }
      ],
      "stateMutability": "view",
      "type": "function"
    },
    {
      "inputs": [],
      "name": "FARMER_ROLE",
      "outputs": [
        {
          "internalType": "bytes32",
          "name": "",
          "type": "bytes32"
        }
      ],
      "stateMutability": "view",
      "type": "function"
    },
    {
      "inputs": [],
      "name": "PROCESSOR_ROLE",
      "outputs": [
        {
          "internalType": "bytes32",
          "name": "",
          "type": "bytes32"
        }
      ],
      "stateMutability": "view",
      "type": "function"
    },
    {
      "inputs": [],
      "name": "SHOPKEEPER_ROLE",
      "outputs": [
        {
          "internalType": "bytes32",
          "name": "",
          "type": "bytes32"
        }
      ],
      "stateMutability": "view",
      "type": "function"
    },
    {
      "inputs": [],
      "name": "SUPPLIER_ROLE",
      "outputs": [
        {
          "internalType": "bytes32",
          "name": "",
          "type": "bytes32"
        }
      ],
      "stateMutability": "view",
      "type": "function"
    },
    {
      "inputs": [
        {
          "internalType": "string",
          "name": "packet_id",
          "type": "string"
        },
        {
          "components": [
            {
              "internalType": "string",
              "name": "distributor_id",
              "type": "string"
            },
            {
              "internalType": "string",
              "name": "gps_coordinates",
              "type": "string"
            },
            {
              "internalType": "string",
              "name": "received_box_code",
              "type": "string"
            },
            {
              "internalType": "string",
              "name": "dispatch_date",
              "type": "string"
            },
            {
              "internalType": "string",
              "name": "sending_box_code",
              "type": "string"
            },
            {
              "internalType": "string",
              "name": "supplier_id",
              "type": "string"
            }
          ],
          "internalType": "struct TurmericSupplyChain.Distributor",
          "name": "d",
          "type": "tuple"
        }
      ],
      "name": "addDistributor",
      "outputs": [],
      "stateMutability": "nonpayable",
      "type": "function"
    },
    {
      "inputs": [
        {
          "internalType": "string",
          "name": "batch_id",
          "type": "string"
        },
        {
          "components": [
            {
              "internalType": "string",
              "name": "farmer_id",
              "type": "string"
            },
            {
              "internalType": "string",
              "name": "product_name",
              "type": "string"
            },
            {
              "internalType": "string",
              "name": "batch_id",
              "type": "string"
            },
            {
              "internalType": "string",
              "name": "harvest_date",
              "type": "string"
            },
            {
              "internalType": "string",
              "name": "gps_coordinates",
              "type": "string"
            },
            {
              "internalType": "string",
              "name": "fertilizer",
              "type": "string"
            },
            {
              "internalType": "string",
              "name": "organic_status",
              "type": "string"
            }
          ],
          "internalType": "struct TurmericSupplyChain.Harvest",
          "name": "h",
          "type": "tuple"
        }
      ],
      "name": "addHarvest",
      "outputs": [],
      "stateMutability": "nonpayable",
      "type": "function"
    },
    {
      "inputs": [
        {
          "internalType": "string",
          "name": "packet_id",
          "type": "string"
        },
        {
          "components": [
            {
              "internalType": "string",
              "name": "unique_packet_id",
              "type": "string"
            },
            {
              "internalType": "string",
              "name": "batch_id",
              "type": "string"
            },
            {
              "internalType": "string",
              "name": "current_stage",
              "type": "string"
            },
            {
              "internalType": "bool",
              "name": "exists",
              "type": "bool"
            }
          ],
          "internalType": "struct TurmericSupplyChain.Packet",
          "name": "p",
          "type": "tuple"
        }
      ],
      "name": "addPacket",
      "outputs": [],
      "stateMutability": "nonpayable",
      "type": "function"
    },
    {
      "inputs": [
        {
          "internalType": "string",
          "name": "batch_id",
          "type": "string"
        },
        {
          "components": [
            {
              "internalType": "string",
              "name": "batch_id",
              "type": "string"
            },
            {
              "internalType": "string",
              "name": "processing_gps",
              "type": "string"
            },
            {
              "internalType": "string",
              "name": "grinding_facility_name",
              "type": "string"
            },
            {
              "internalType": "uint256",
              "name": "moisture_content",
              "type": "uint256"
            },
            {
              "internalType": "uint256",
              "name": "curcumin_content",
              "type": "uint256"
            },
            {
              "internalType": "string",
              "name": "heavy_metals",
              "type": "string"
            },
            {
              "internalType": "string",
              "name": "physical_properties",
              "type": "string"
            },
            {
              "internalType": "string",
              "name": "packaging_date",
              "type": "string"
            },
            {
              "internalType": "string",
              "name": "packaging_unit",
              "type": "string"
            },
            {
              "internalType": "string",
              "name": "packet_id",
              "type": "string"
            },
            {
              "internalType": "string",
              "name": "expiry_date",
              "type": "string"
            },
            {
              "internalType": "string",
              "name": "sending_box_code",
              "type": "string"
            },
            {
              "internalType": "string",
              "name": "distributor_id",
              "type": "string"
            }
          ],
          "internalType": "struct TurmericSupplyChain.Processing",
          "name": "p",
          "type": "tuple"
        }
      ],
      "name": "addProcessing",
      "outputs": [],
      "stateMutability": "nonpayable",
      "type": "function"
    },
    {
      "inputs": [
        {
          "internalType": "string",
          "name": "packet_id",
          "type": "string"
        },
        {
          "components": [
            {
              "internalType": "string",
              "name": "shopkeeper_id",
              "type": "string"
            },
            {
              "internalType": "string",
              "name": "packet_id",
              "type": "string"
            },
            {
              "internalType": "string",
              "name": "gps_coordinates",
              "type": "string"
            },
            {
              "internalType": "string",
              "name": "date_received",
              "type": "string"
            }
          ],
          "internalType": "struct TurmericSupplyChain.Shopkeeper",
          "name": "sh",
          "type": "tuple"
        }
      ],
      "name": "addShopkeeper",
      "outputs": [],
      "stateMutability": "nonpayable",
      "type": "function"
    },
    {
      "inputs": [
        {
          "internalType": "string",
          "name": "packet_id",
          "type": "string"
        },
        {
          "components": [
            {
              "internalType": "string",
              "name": "supplier_id",
              "type": "string"
            },
            {
              "internalType": "string",
              "name": "received_box_code",
              "type": "string"
            },
            {
              "internalType": "string",
              "name": "gps_coordinates",
              "type": "string"
            },
            {
              "internalType": "string",
              "name": "receipt_date",
              "type": "string"
            },
            {
              "internalType": "string",
              "name": "shopkeeper_id",
              "type": "string"
            },
            {
              "internalType": "string",
              "name": "packet_id",
              "type": "string"
            }
          ],
          "internalType": "struct TurmericSupplyChain.Supplier",
          "name": "s",
          "type": "tuple"
        }
      ],
      "name": "addSupplier",
      "outputs": [],
      "stateMutability": "nonpayable",
      "type": "function"
    },
    {
      "inputs": [
        {
          "internalType": "string",
          "name": "packet_id",
          "type": "string"
        }
      ],
      "name": "getDistributor",
      "outputs": [
        {
          "components": [
            {
              "internalType": "string",
              "name": "distributor_id",
              "type": "string"
            },
            {
              "internalType": "string",
              "name": "gps_coordinates",
              "type": "string"
            },
            {
              "internalType": "string",
              "name": "received_box_code",
              "type": "string"
            },
            {
              "internalType": "string",
              "name": "dispatch_date",
              "type": "string"
            },
            {
              "internalType": "string",
              "name": "sending_box_code",
              "type": "string"
            },
            {
              "internalType": "string",
              "name": "supplier_id",
              "type": "string"
            }
          ],
          "internalType": "struct TurmericSupplyChain.Distributor",
          "name": "",
          "type": "tuple"
        }
      ],
      "stateMutability": "view",
      "type": "function"
    },
    {
      "inputs": [
        {
          "internalType": "string",
          "name": "batch_id",
          "type": "string"
        }
      ],
      "name": "getHarvest",
      "outputs": [
        {
          "components": [
            {
              "internalType": "string",
              "name": "farmer_id",
              "type": "string"
            },
            {
              "internalType": "string",
              "name": "product_name",
              "type": "string"
            },
            {
              "internalType": "string",
              "name": "batch_id",
              "type": "string"
            },
            {
              "internalType": "string",
              "name": "harvest_date",
              "type": "string"
            },
            {
              "internalType": "string",
              "name": "gps_coordinates",
              "type": "string"
            },
            {
              "internalType": "string",
              "name": "fertilizer",
              "type": "string"
            },
            {
              "internalType": "string",
              "name": "organic_status",
              "type": "string"
            }
          ],
          "internalType": "struct TurmericSupplyChain.Harvest",
          "name": "",
          "type": "tuple"
        }
      ],
      "stateMutability": "view",
      "type": "function"
    },
    {
      "inputs": [
        {
          "internalType": "string",
          "name": "packet_id",
          "type": "string"
        }
      ],
      "name": "getPacket",
      "outputs": [
        {
          "components": [
            {
              "internalType": "string",
              "name": "unique_packet_id",
              "type": "string"
            },
            {
              "internalType": "string",
              "name": "batch_id",
              "type": "string"
            },
            {
              "internalType": "string",
              "name": "current_stage",
              "type": "string"
            },
            {
              "internalType": "bool",
              "name": "exists",
              "type": "bool"
            }
          ],
          "internalType": "struct TurmericSupplyChain.Packet",
          "name": "",
          "type": "tuple"
        }
      ],
      "stateMutability": "view",
      "type": "function"
    },
    {
      "inputs": [
        {
          "internalType": "string",
          "name": "batch_id",
          "type": "string"
        }
      ],
      "name": "getProcessing",
      "outputs": [
        {
          "components": [
            {
              "internalType": "string",
              "name": "batch_id",
              "type": "string"
            },
            {
              "internalType": "string",
              "name": "processing_gps",
              "type": "string"
            },
            {
              "internalType": "string",
              "name": "grinding_facility_name",
              "type": "string"
            },
            {
              "internalType": "uint256",
              "name": "moisture_content",
              "type": "uint256"
            },
            {
              "internalType": "uint256",
              "name": "curcumin_content",
              "type": "uint256"
            },
            {
              "internalType": "string",
              "name": "heavy_metals",
              "type": "string"
            },
            {
              "internalType": "string",
              "name": "physical_properties",
              "type": "string"
            },
            {
              "internalType": "string",
              "name": "packaging_date",
              "type": "string"
            },
            {
              "internalType": "string",
              "name": "packaging_unit",
              "type": "string"
            },
            {
              "internalType": "string",
              "name": "packet_id",
              "type": "string"
            },
            {
              "internalType": "string",
              "name": "expiry_date",
              "type": "string"
            },
            {
              "internalType": "string",
              "name": "sending_box_code",
              "type": "string"
            },
            {
              "internalType": "string",
              "name": "distributor_id",
              "type": "string"
            }
          ],
          "internalType": "struct TurmericSupplyChain.Processing",
          "name": "",
          "type": "tuple"
        }
      ],
      "stateMutability": "view",
      "type": "function"
    },
    {
      "inputs": [
        {
          "internalType": "bytes32",
          "name": "role",
          "type": "bytes32"
        }
      ],
      "name": "getRoleAdmin",
      "outputs": [
        {
          "internalType": "bytes32",
          "name": "",
          "type": "bytes32"
        }
      ],
      "stateMutability": "view",
      "type": "function"
    },
    {
      "inputs": [
        {
          "internalType": "string",
          "name": "packet_id",
          "type": "string"
        }
      ],
      "name": "getShopkeeper",
      "outputs": [
        {
          "components": [
            {
              "internalType": "string",
              "name": "shopkeeper_id",
              "type": "string"
            },
            {
              "internalType": "string",
              "name": "packet_id",
              "type": "string"
            },
            {
              "internalType": "string",
              "name": "gps_coordinates",
              "type": "string"
            },
            {
              "internalType": "string",
              "name": "date_received",
              "type": "string"
            }
          ],
          "internalType": "struct TurmericSupplyChain.Shopkeeper",
          "name": "",
          "type": "tuple"
        }
      ],
      "stateMutability": "view",
      "type": "function"
    },
    {
      "inputs": [
        {
          "internalType": "string",
          "name": "packet_id",
          "type": "string"
        }
      ],
      "name": "getSupplier",
      "outputs": [
        {
          "components": [
            {
              "internalType": "string",
              "name": "supplier_id",
              "type": "string"
            },
            {
              "internalType": "string",
              "name": "received_box_code",
              "type": "string"
            },
            {
              "internalType": "string",
              "name": "gps_coordinates",
              "type": "string"
            },
            {
              "internalType": "string",
              "name": "receipt_date",
              "type": "string"
            },
            {
              "internalType": "string",
              "name": "shopkeeper_id",
              "type": "string"
            },
            {
              "internalType": "string",
              "name": "packet_id",
              "type": "string"
            }
          ],
          "internalType": "struct TurmericSupplyChain.Supplier",
          "name": "",
          "type": "tuple"
        }
      ],
      "stateMutability": "view",
      "type": "function"
    },
    {
      "inputs": [
        {
          "internalType": "bytes32",
          "name": "role",
          "type": "bytes32"
        },
        {
          "internalType": "address",
          "name": "account",
          "type": "address"
        }
      ],
      "name": "grantRole",
      "outputs": [],
      "stateMutability": "nonpayable",
      "type": "function"
    },
    {
      "inputs": [
        {
          "internalType": "bytes32",
          "name": "role",
          "type": "bytes32"
        },
        {
          "internalType": "address",
          "name": "account",
          "type": "address"
        }
      ],
      "name": "hasRole",
      "outputs": [
        {
          "internalType": "bool",
          "name": "",
          "type": "bool"
        }
      ],
      "stateMutability": "view",
      "type": "function"
    },
    {
      "inputs": [
        {
          "internalType": "bytes32",
          "name": "role",
          "type": "bytes32"
        },
        {
          "internalType": "address",
          "name": "callerConfirmation",
          "type": "address"
        }
      ],
      "name": "renounceRole",
      "outputs": [],
      "stateMutability": "nonpayable",
      "type": "function"
    },
    {
      "inputs": [
        {
          "internalType": "bytes32",
          "name": "role",
          "type": "bytes32"
        },
        {
          "internalType": "address",
          "name": "account",
          "type": "address"
        }
      ],
      "name": "revokeRole",
      "outputs": [],
      "stateMutability": "nonpayable",
      "type": "function"
    },
    {
      "inputs": [
        {
          "internalType": "bytes4",
          "name": "interfaceId",
          "type": "bytes4"
        }
      ],
      "name": "supportsInterface",
      "outputs": [
        {
          "internalType": "bool",
          "name": "",
          "type": "bool"
        }
      ],
      "stateMutability": "view",
      "type": "function"
    }
  ],
  "bytecode": "0x608060405234801561001057600080fd5b50604051614c76380380614c768339818101604052810190610032919061021e565b6100456000801b8261004c60201b60201c565b505061024b565b600061005e838361014960201b60201c565b61013e57600160008085815260200190815260200160002060000160008473ffffffffffffffffffffffffffffffffffffffff1673ffffffffffffffffffffffffffffffffffffffff16815260200190815260200160002060006101000a81548160ff0219169083151502179055506100db6101b360201b60201c565b73ffffffffffffffffffffffffffffffffffffffff168273ffffffffffffffffffffffffffffffffffffffff16847f2f8788117e7eff1d82e926ec794901d17c78024a50270940304540a733656f0d60405160405180910390a460019050610143565b600090505b92915050565b600080600084815260200190815260200160002060000160008373ffffffffffffffffffffffffffffffffffffffff1673ffffffffffffffffffffffffffffffffffffffff16815260200190815260200160002060009054906101000a900460ff16905092915050565b600033905090565b600080fd5b600073ffffffffffffffffffffffffffffffffffffffff82169050919050565b60006101eb826101c0565b9050919050565b6101fb816101e0565b811461020657600080fd5b50565b600081519050610218816101f2565b92915050565b600060208284031215610234576102336101bb565b5b600061024284828501610209565b91505092915050565b614a1c8061025a6000396000f3fe608060405234801561001057600080fd5b50600436106101575760003560e01c806391d14854116100c3578063b57eddf81161007c578063b57eddf81461040e578063d547741f1461042a578063d759a5ba14610446578063f0bd87cc14610462578063f394397014610480578063f99d54da1461049e57610157565b806391d1485414610326578063931c8a901461035657806398a9abad1461038657806398ad0642146103a2578063a217fddf146103d2578063a29508fc146103f057610157565b80632f2ff15d116101155780632f2ff15d1461025457806336568abe146102705780634743c2cb1461028c5780635888cc9a146102bc57806372c9379b146102d85780638222bdb21461030857610157565b8062bc3e0d1461015c57806301ffc9a7146101785780630565dec1146101a85780630ec4a56b146101d857806310370baa14610208578063248a9ca314610224575b600080fd5b61017660048036038101906101719190613342565b6104bc565b005b610192600480360381019061018d9190613412565b6108fd565b60405161019f919061345a565b60405180910390f35b6101c260048036038101906101bd9190613475565b610977565b6040516101cf91906135b5565b60405180910390f35b6101f260048036038101906101ed9190613475565b610bf7565b6040516101ff9190613745565b60405180910390f35b610222600480360381019061021d91906138af565b61128a565b005b61023e6004803603810190610239919061395d565b6114f4565b60405161024b9190613999565b60405180910390f35b61026e60048036038101906102699190613a12565b611513565b005b61028a60048036038101906102859190613a12565b611535565b005b6102a660048036038101906102a19190613475565b6115b0565b6040516102b39190613afe565b60405180910390f35b6102d660048036038101906102d19190613c08565b611954565b005b6102f260048036038101906102ed9190613475565b611b92565b6040516102ff9190613d46565b60405180910390f35b610310611fc8565b60405161031d9190613999565b60405180910390f35b610340600480360381019061033b9190613a12565b611fec565b60405161034d919061345a565b60405180910390f35b610370600480360381019061036b9190613475565b612056565b60405161037d9190613de8565b60405180910390f35b6103a0600480360381019061039b9190613f52565b61225f565b005b6103bc60048036038101906103b79190613475565b6124c9565b6040516103c99190614076565b60405180910390f35b6103da61286d565b6040516103e79190613999565b60405180910390f35b6103f8612874565b6040516104059190613999565b60405180910390f35b61042860048036038101906104239190614190565b612898565b005b610444600480360381019061043f9190613a12565b6129a6565b005b610460600480360381019061045b9190614380565b6129c8565b005b61046a612ab3565b6040516104779190613999565b60405180910390f35b610488612ad7565b6040516104959190613999565b60405180910390f35b6104a6612afb565b6040516104b39190613999565b60405180910390f35b7fe61decff6e4a5c6b5a3d3cbd28f882e595173563b49353ce5f31dba2de7f05ee6104e681612b1f565b816003846040516104f79190614434565b9081526020016040518091039020600082015181600001908161051a9190614657565b5060208201518160010190816105309190614657565b5060408201518160020190816105469190614657565b50606082015181600301556080820151816004015560a08201518160050190816105709190614657565b5060c08201518160060190816105869190614657565b5060e082015181600701908161059c9190614657565b506101008201518160080190816105b39190614657565b506101208201518160090190816105ca9190614657565b5061014082015181600a0190816105e19190614657565b5061016082015181600b0190816105f89190614657565b5061018082015181600c01908161060f9190614657565b5090505060018261012001516040516106289190614434565b908152602001604051809103902060030160009054906101000a900460ff1661078857604051806080016040528083610120015181526020018481526020016040518060400160405280600a81526020017f70726f63657373696e670000000000000000000000000000000000000000000081525081526020016001151581525060018361012001516040516106be9190614434565b908152602001604051809103902060008201518160000190816106e19190614657565b5060208201518160010190816106f79190614657565b50604082015181600201908161070d9190614657565b5060608201518160030160006101000a81548160ff0219169083151502179055509050508161012001516040516107449190614434565b60405180910390207f21519163c0a8e059c8e23e0ab06f425fdc81bc5628279bfbac9f2440aec70bcc8460405161077b91906147bf565b60405180910390a26108f8565b6000600183610120015160405161079f9190614434565b908152602001604051809103902060020180546107bb9061447a565b80601f01602080910402602001604051908101604052809291908181526020018280546107e79061447a565b80156108345780601f1061080957610100808354040283529160200191610834565b820191906000526020600020905b81548152906001019060200180831161081757829003601f168201915b505050505090506040518060400160405280600a81526020017f70726f63657373696e670000000000000000000000000000000000000000000081525060018461012001516040516108869190614434565b908152602001604051809103902060020190816108a39190614657565b508261012001516040516108b79190614434565b60405180910390207fe16ad7ae21fa154ae9292dc4f86747ad006df43be1178bedaf3a896b66a59d39826040516108ee91906147bf565b60405180910390a2505b505050565b60007f7965db0b000000000000000000000000000000000000000000000000000000007bffffffffffffffffffffffffffffffffffffffffffffffffffffffff1916827bffffffffffffffffffffffffffffffffffffffffffffffffffffffff19161480610970575061096f82612b33565b5b9050919050565b61097f612dd9565b60068260405161098f9190614434565b90815260200160405180910390206040518060800160405290816000820180546109b89061447a565b80601f01602080910402602001604051908101604052809291908181526020018280546109e49061447a565b8015610a315780601f10610a0657610100808354040283529160200191610a31565b820191906000526020600020905b815481529060010190602001808311610a1457829003601f168201915b50505050508152602001600182018054610a4a9061447a565b80601f0160208091040260200160405190810160405280929190818152602001828054610a769061447a565b8015610ac35780601f10610a9857610100808354040283529160200191610ac3565b820191906000526020600020905b815481529060010190602001808311610aa657829003601f168201915b50505050508152602001600282018054610adc9061447a565b80601f0160208091040260200160405190810160405280929190818152602001828054610b089061447a565b8015610b555780601f10610b2a57610100808354040283529160200191610b55565b820191906000526020600020905b815481529060010190602001808311610b3857829003601f168201915b50505050508152602001600382018054610b6e9061447a565b80601f0160208091040260200160405190810160405280929190818152602001828054610b9a9061447a565b8015610be75780601f10610bbc57610100808354040283529160200191610be7565b820191906000526020600020905b815481529060010190602001808311610bca57829003601f168201915b5050505050815250509050919050565b610bff612e01565b600382604051610c0f9190614434565b9081526020016040518091039020604051806101a0016040529081600082018054610c399061447a565b80601f0160208091040260200160405190810160405280929190818152602001828054610c659061447a565b8015610cb25780601f10610c8757610100808354040283529160200191610cb2565b820191906000526020600020905b815481529060010190602001808311610c9557829003601f168201915b50505050508152602001600182018054610ccb9061447a565b80601f0160208091040260200160405190810160405280929190818152602001828054610cf79061447a565b8015610d445780601f10610d1957610100808354040283529160200191610d44565b820191906000526020600020905b815481529060010190602001808311610d2757829003601f168201915b50505050508152602001600282018054610d5d9061447a565b80601f0160208091040260200160405190810160405280929190818152602001828054610d899061447a565b8015610dd65780601f10610dab57610100808354040283529160200191610dd6565b820191906000526020600020905b815481529060010190602001808311610db957829003601f168201915b505050505081526020016003820154815260200160048201548152602001600582018054610e039061447a565b80601f0160208091040260200160405190810160405280929190818152602001828054610e2f9061447a565b8015610e7c5780601f10610e5157610100808354040283529160200191610e7c565b820191906000526020600020905b815481529060010190602001808311610e5f57829003601f168201915b50505050508152602001600682018054610e959061447a565b80601f0160208091040260200160405190810160405280929190818152602001828054610ec19061447a565b8015610f0e5780601f10610ee357610100808354040283529160200191610f0e565b820191906000526020600020905b815481529060010190602001808311610ef157829003601f168201915b50505050508152602001600782018054610f279061447a565b80601f0160208091040260200160405190810160405280929190818152602001828054610f539061447a565b8015610fa05780601f10610f7557610100808354040283529160200191610fa0565b820191906000526020600020905b815481529060010190602001808311610f8357829003601f168201915b50505050508152602001600882018054610fb99061447a565b80601f0160208091040260200160405190810160405280929190818152602001828054610fe59061447a565b80156110325780601f1061100757610100808354040283529160200191611032565b820191906000526020600020905b81548152906001019060200180831161101557829003601f168201915b5050505050815260200160098201805461104b9061447a565b80601f01602080910402602001604051908101604052809291908181526020018280546110779061447a565b80156110c45780601f10611099576101008083540402835291602001916110c4565b820191906000526020600020905b8154815290600101906020018083116110a757829003601f168201915b50505050508152602001600a820180546110dd9061447a565b80601f01602080910402602001604051908101604052809291908181526020018280546111099061447a565b80156111565780601f1061112b57610100808354040283529160200191611156565b820191906000526020600020905b81548152906001019060200180831161113957829003601f168201915b50505050508152602001600b8201805461116f9061447a565b80601f016020809104026020016040519081016040528092919081815260200182805461119b9061447a565b80156111e85780601f106111bd576101008083540402835291602001916111e8565b820191906000526020600020905b8154815290600101906020018083116111cb57829003601f168201915b50505050508152602001600c820180546112019061447a565b80601f016020809104026020016040519081016040528092919081815260200182805461122d9061447a565b801561127a5780601f1061124f5761010080835404028352916020019161127a565b820191906000526020600020905b81548152906001019060200180831161125d57829003601f168201915b5050505050815250509050919050565b7ffbd454f36a7e1a388bd6fc3ab10d434aa4578f811acbbcf33afb1c697486313c6112b481612b1f565b816004846040516112c59190614434565b908152602001604051809103902060008201518160000190816112e89190614657565b5060208201518160010190816112fe9190614657565b5060408201518160020190816113149190614657565b50606082015181600301908161132a9190614657565b5060808201518160040190816113409190614657565b5060a08201518160050190816113569190614657565b5090505060018360405161136a9190614434565b908152602001604051809103902060030160009054906101000a900460ff16156114ef5760006001846040516113a09190614434565b908152602001604051809103902060020180546113bc9061447a565b80601f01602080910402602001604051908101604052809291908181526020018280546113e89061447a565b80156114355780601f1061140a57610100808354040283529160200191611435565b820191906000526020600020905b81548152906001019060200180831161141857829003601f168201915b505050505090506040518060400160405280600b81526020017f6469737472696275746f720000000000000000000000000000000000000000008152506001856040516114829190614434565b9081526020016040518091039020600201908161149f9190614657565b50836040516114ae9190614434565b60405180910390207fe16ad7ae21fa154ae9292dc4f86747ad006df43be1178bedaf3a896b66a59d39826040516114e59190614840565b60405180910390a2505b505050565b6000806000838152602001908152602001600020600101549050919050565b61151c826114f4565b61152581612b1f565b61152f8383612b9d565b50505050565b61153d612c8e565b73ffffffffffffffffffffffffffffffffffffffff168173ffffffffffffffffffffffffffffffffffffffff16146115a1576040517f6697b23200000000000000000000000000000000000000000000000000000000815260040160405180910390fd5b6115ab8282612c96565b505050565b6115b8612e69565b6004826040516115c89190614434565b90815260200160405180910390206040518060c00160405290816000820180546115f19061447a565b80601f016020809104026020016040519081016040528092919081815260200182805461161d9061447a565b801561166a5780601f1061163f5761010080835404028352916020019161166a565b820191906000526020600020905b81548152906001019060200180831161164d57829003601f168201915b505050505081526020016001820180546116839061447a565b80601f01602080910402602001604051908101604052809291908181526020018280546116af9061447a565b80156116fc5780601f106116d1576101008083540402835291602001916116fc565b820191906000526020600020905b8154815290600101906020018083116116df57829003601f168201915b505050505081526020016002820180546117159061447a565b80601f01602080910402602001604051908101604052809291908181526020018280546117419061447a565b801561178e5780601f106117635761010080835404028352916020019161178e565b820191906000526020600020905b81548152906001019060200180831161177157829003601f168201915b505050505081526020016003820180546117a79061447a565b80601f01602080910402602001604051908101604052809291908181526020018280546117d39061447a565b80156118205780601f106117f557610100808354040283529160200191611820565b820191906000526020600020905b81548152906001019060200180831161180357829003601f168201915b505050505081526020016004820180546118399061447a565b80601f01602080910402602001604051908101604052809291908181526020018280546118659061447a565b80156118b25780601f10611887576101008083540402835291602001916118b2565b820191906000526020600020905b81548152906001019060200180831161189557829003601f168201915b505050505081526020016005820180546118cb9061447a565b80601f01602080910402602001604051908101604052809291908181526020018280546118f79061447a565b80156119445780601f1061191957610100808354040283529160200191611944565b820191906000526020600020905b81548152906001019060200180831161192757829003601f168201915b5050505050815250509050919050565b7fb717b2b458e4f190ac4e55e3aa1d4d28e207cea5e79511d5cfe0f23587abf2ff61197e81612b1f565b8160068460405161198f9190614434565b908152602001604051809103902060008201518160000190816119b29190614657565b5060208201518160010190816119c89190614657565b5060408201518160020190816119de9190614657565b5060608201518160030190816119f49190614657565b50905050600183604051611a089190614434565b908152602001604051809103902060030160009054906101000a900460ff1615611b8d576000600184604051611a3e9190614434565b90815260200160405180910390206002018054611a5a9061447a565b80601f0160208091040260200160405190810160405280929190818152602001828054611a869061447a565b8015611ad35780601f10611aa857610100808354040283529160200191611ad3565b820191906000526020600020905b815481529060010190602001808311611ab657829003601f168201915b505050505090506040518060400160405280600a81526020017f73686f706b656570657200000000000000000000000000000000000000000000815250600185604051611b209190614434565b90815260200160405180910390206002019081611b3d9190614657565b5083604051611b4c9190614434565b60405180910390207fe16ad7ae21fa154ae9292dc4f86747ad006df43be1178bedaf3a896b66a59d3982604051611b8391906148c1565b60405180910390a2505b505050565b611b9a612e9f565b600282604051611baa9190614434565b90815260200160405180910390206040518060e0016040529081600082018054611bd39061447a565b80601f0160208091040260200160405190810160405280929190818152602001828054611bff9061447a565b8015611c4c5780601f10611c2157610100808354040283529160200191611c4c565b820191906000526020600020905b815481529060010190602001808311611c2f57829003601f168201915b50505050508152602001600182018054611c659061447a565b80601f0160208091040260200160405190810160405280929190818152602001828054611c919061447a565b8015611cde5780601f10611cb357610100808354040283529160200191611cde565b820191906000526020600020905b815481529060010190602001808311611cc157829003601f168201915b50505050508152602001600282018054611cf79061447a565b80601f0160208091040260200160405190810160405280929190818152602001828054611d239061447a565b8015611d705780601f10611d4557610100808354040283529160200191611d70565b820191906000526020600020905b815481529060010190602001808311611d5357829003601f168201915b50505050508152602001600382018054611d899061447a565b80601f0160208091040260200160405190810160405280929190818152602001828054611db59061447a565b8015611e025780601f10611dd757610100808354040283529160200191611e02565b820191906000526020600020905b815481529060010190602001808311611de557829003601f168201915b50505050508152602001600482018054611e1b9061447a565b80601f0160208091040260200160405190810160405280929190818152602001828054611e479061447a565b8015611e945780601f10611e6957610100808354040283529160200191611e94565b820191906000526020600020905b815481529060010190602001808311611e7757829003601f168201915b50505050508152602001600582018054611ead9061447a565b80601f0160208091040260200160405190810160405280929190818152602001828054611ed99061447a565b8015611f265780601f10611efb57610100808354040283529160200191611f26565b820191906000526020600020905b815481529060010190602001808311611f0957829003601f168201915b50505050508152602001600682018054611f3f9061447a565b80601f0160208091040260200160405190810160405280929190818152602001828054611f6b9061447a565b8015611fb85780601f10611f8d57610100808354040283529160200191611fb8565b820191906000526020600020905b815481529060010190602001808311611f9b57829003601f168201915b5050505050815250509050919050565b7fe61decff6e4a5c6b5a3d3cbd28f882e595173563b49353ce5f31dba2de7f05ee81565b600080600084815260200190815260200160002060000160008373ffffffffffffffffffffffffffffffffffffffff1673ffffffffffffffffffffffffffffffffffffffff16815260200190815260200160002060009054906101000a900460ff16905092915050565b61205e612edc565b60018260405161206e9190614434565b90815260200160405180910390206040518060800160405290816000820180546120979061447a565b80601f01602080910402602001604051908101604052809291908181526020018280546120c39061447a565b80156121105780601f106120e557610100808354040283529160200191612110565b820191906000526020600020905b8154815290600101906020018083116120f357829003601f168201915b505050505081526020016001820180546121299061447a565b80601f01602080910402602001604051908101604052809291908181526020018280546121559061447a565b80156121a25780601f10612177576101008083540402835291602001916121a2565b820191906000526020600020905b81548152906001019060200180831161218557829003601f168201915b505050505081526020016002820180546121bb9061447a565b80601f01602080910402602001604051908101604052809291908181526020018280546121e79061447a565b80156122345780601f1061220957610100808354040283529160200191612234565b820191906000526020600020905b81548152906001019060200180831161221757829003601f168201915b505050505081526020016003820160009054906101000a900460ff1615151515815250509050919050565b7fd1ae8bbdabd60d63e418b84f5ad6f9cba90092c9816d7724d85f0d4e4bea2c6061228981612b1f565b8160058460405161229a9190614434565b908152602001604051809103902060008201518160000190816122bd9190614657565b5060208201518160010190816122d39190614657565b5060408201518160020190816122e99190614657565b5060608201518160030190816122ff9190614657565b5060808201518160040190816123159190614657565b5060a082015181600501908161232b9190614657565b5090505060018360405161233f9190614434565b908152602001604051809103902060030160009054906101000a900460ff16156124c45760006001846040516123759190614434565b908152602001604051809103902060020180546123919061447a565b80601f01602080910402602001604051908101604052809291908181526020018280546123bd9061447a565b801561240a5780601f106123df5761010080835404028352916020019161240a565b820191906000526020600020905b8154815290600101906020018083116123ed57829003601f168201915b505050505090506040518060400160405280600881526020017f737570706c6965720000000000000000000000000000000000000000000000008152506001856040516124579190614434565b908152602001604051809103902060020190816124749190614657565b50836040516124839190614434565b60405180910390207fe16ad7ae21fa154ae9292dc4f86747ad006df43be1178bedaf3a896b66a59d39826040516124ba9190614942565b60405180910390a2505b505050565b6124d1612f06565b6005826040516124e19190614434565b90815260200160405180910390206040518060c001604052908160008201805461250a9061447a565b80601f01602080910402602001604051908101604052809291908181526020018280546125369061447a565b80156125835780601f1061255857610100808354040283529160200191612583565b820191906000526020600020905b81548152906001019060200180831161256657829003601f168201915b5050505050815260200160018201805461259c9061447a565b80601f01602080910402602001604051908101604052809291908181526020018280546125c89061447a565b80156126155780601f106125ea57610100808354040283529160200191612615565b820191906000526020600020905b8154815290600101906020018083116125f857829003601f168201915b5050505050815260200160028201805461262e9061447a565b80601f016020809104026020016040519081016040528092919081815260200182805461265a9061447a565b80156126a75780601f1061267c576101008083540402835291602001916126a7565b820191906000526020600020905b81548152906001019060200180831161268a57829003601f168201915b505050505081526020016003820180546126c09061447a565b80601f01602080910402602001604051908101604052809291908181526020018280546126ec9061447a565b80156127395780601f1061270e57610100808354040283529160200191612739565b820191906000526020600020905b81548152906001019060200180831161271c57829003601f168201915b505050505081526020016004820180546127529061447a565b80601f016020809104026020016040519081016040528092919081815260200182805461277e9061447a565b80156127cb5780601f106127a0576101008083540402835291602001916127cb565b820191906000526020600020905b8154815290600101906020018083116127ae57829003601f168201915b505050505081526020016005820180546127e49061447a565b80601f01602080910402602001604051908101604052809291908181526020018280546128109061447a565b801561285d5780601f106128325761010080835404028352916020019161285d565b820191906000526020600020905b81548152906001019060200180831161284057829003601f168201915b5050505050815250509050919050565b6000801b81565b7fd1ae8bbdabd60d63e418b84f5ad6f9cba90092c9816d7724d85f0d4e4bea2c6081565b7fe61decff6e4a5c6b5a3d3cbd28f882e595173563b49353ce5f31dba2de7f05ee6128c281612b1f565b816001846040516128d39190614434565b908152602001604051809103902060008201518160000190816128f69190614657565b50602082015181600101908161290c9190614657565b5060408201518160020190816129229190614657565b5060608201518160030160006101000a81548160ff02191690831515021790555090505081600001516040516129589190614434565b60405180910390207f21519163c0a8e059c8e23e0ab06f425fdc81bc5628279bfbac9f2440aec70bcc83602001518460400151604051612999929190614977565b60405180910390a2505050565b6129af826114f4565b6129b881612b1f565b6129c28383612c96565b50505050565b7f7c6181838a71a779e445600d4c6ecbe16bacf2b3c5bda69c29fada66d1b645d16129f281612b1f565b81600284604051612a039190614434565b90815260200160405180910390206000820151816000019081612a269190614657565b506020820151816001019081612a3c9190614657565b506040820151816002019081612a529190614657565b506060820151816003019081612a689190614657565b506080820151816004019081612a7e9190614657565b5060a0820151816005019081612a949190614657565b5060c0820151816006019081612aaa9190614657565b50905050505050565b7ffbd454f36a7e1a388bd6fc3ab10d434aa4578f811acbbcf33afb1c697486313c81565b7f7c6181838a71a779e445600d4c6ecbe16bacf2b3c5bda69c29fada66d1b645d181565b7fb717b2b458e4f190ac4e55e3aa1d4d28e207cea5e79511d5cfe0f23587abf2ff81565b612b3081612b2b612c8e565b612d88565b50565b60007f01ffc9a7000000000000000000000000000000000000000000000000000000007bffffffffffffffffffffffffffffffffffffffffffffffffffffffff1916827bffffffffffffffffffffffffffffffffffffffffffffffffffffffff1916149050919050565b6000612ba98383611fec565b612c8357600160008085815260200190815260200160002060000160008473ffffffffffffffffffffffffffffffffffffffff1673ffffffffffffffffffffffffffffffffffffffff16815260200190815260200160002060006101000a81548160ff021916908315150217905550612c20612c8e565b73ffffffffffffffffffffffffffffffffffffffff168273ffffffffffffffffffffffffffffffffffffffff16847f2f8788117e7eff1d82e926ec794901d17c78024a50270940304540a733656f0d60405160405180910390a460019050612c88565b600090505b92915050565b600033905090565b6000612ca28383611fec565b15612d7d57600080600085815260200190815260200160002060000160008473ffffffffffffffffffffffffffffffffffffffff1673ffffffffffffffffffffffffffffffffffffffff16815260200190815260200160002060006101000a81548160ff021916908315150217905550612d1a612c8e565b73ffffffffffffffffffffffffffffffffffffffff168273ffffffffffffffffffffffffffffffffffffffff16847ff6391f5c32d9c69d2a47ea670b442974b53935d1edc7fd64eb21e047a839171b60405160405180910390a460019050612d82565b600090505b92915050565b612d928282611fec565b612dd55780826040517fe2517d3f000000000000000000000000000000000000000000000000000000008152600401612dcc9291906149bd565b60405180910390fd5b5050565b6040518060800160405280606081526020016060815260200160608152602001606081525090565b604051806101a00160405280606081526020016060815260200160608152602001600081526020016000815260200160608152602001606081526020016060815260200160608152602001606081526020016060815260200160608152602001606081525090565b6040518060c001604052806060815260200160608152602001606081526020016060815260200160608152602001606081525090565b6040518060e00160405280606081526020016060815260200160608152602001606081526020016060815260200160608152602001606081525090565b60405180608001604052806060815260200160608152602001606081526020016000151581525090565b6040518060c001604052806060815260200160608152602001606081526020016060815260200160608152602001606081525090565b6000604051905090565b600080fd5b600080fd5b600080fd5b600080fd5b6000601f19601f8301169050919050565b7f4e487b7100000000000000000000000000000000000000000000000000000000600052604160045260246000fd5b612fa382612f5a565b810181811067ffffffffffffffff82111715612fc257612fc1612f6b565b5b80604052505050565b6000612fd5612f3c565b9050612fe18282612f9a565b919050565b600067ffffffffffffffff82111561300157613000612f6b565b5b61300a82612f5a565b9050602081019050919050565b82818337600083830152505050565b600061303961303484612fe6565b612fcb565b90508281526020810184848401111561305557613054612f55565b5b613060848285613017565b509392505050565b600082601f83011261307d5761307c612f50565b5b813561308d848260208601613026565b91505092915050565b600080fd5b600080fd5b6000819050919050565b6130b3816130a0565b81146130be57600080fd5b50565b6000813590506130d0816130aa565b92915050565b60006101a082840312156130ed576130ec613096565b5b6130f86101a0612fcb565b9050600082013567ffffffffffffffff8111156131185761311761309b565b5b61312484828501613068565b600083015250602082013567ffffffffffffffff8111156131485761314761309b565b5b61315484828501613068565b602083015250604082013567ffffffffffffffff8111156131785761317761309b565b5b61318484828501613068565b6040830152506060613198848285016130c1565b60608301525060806131ac848285016130c1565b60808301525060a082013567ffffffffffffffff8111156131d0576131cf61309b565b5b6131dc84828501613068565b60a08301525060c082013567ffffffffffffffff811115613200576131ff61309b565b5b61320c84828501613068565b60c08301525060e082013567ffffffffffffffff8111156132305761322f61309b565b5b61323c84828501613068565b60e08301525061010082013567ffffffffffffffff8111156132615761326061309b565b5b61326d84828501613068565b6101008301525061012082013567ffffffffffffffff8111156132935761329261309b565b5b61329f84828501613068565b6101208301525061014082013567ffffffffffffffff8111156132c5576132c461309b565b5b6132d184828501613068565b6101408301525061016082013567ffffffffffffffff8111156132f7576132f661309b565b5b61330384828501613068565b6101608301525061018082013567ffffffffffffffff8111156133295761332861309b565b5b61333584828501613068565b6101808301525092915050565b6000806040838503121561335957613358612f46565b5b600083013567ffffffffffffffff81111561337757613376612f4b565b5b61338385828601613068565b925050602083013567ffffffffffffffff8111156133a4576133a3612f4b565b5b6133b0858286016130d6565b9150509250929050565b60007fffffffff0000000000000000000000000000000000000000000000000000000082169050919050565b6133ef816133ba565b81146133fa57600080fd5b50565b60008135905061340c816133e6565b92915050565b60006020828403121561342857613427612f46565b5b6000613436848285016133fd565b91505092915050565b60008115159050919050565b6134548161343f565b82525050565b600060208201905061346f600083018461344b565b92915050565b60006020828403121561348b5761348a612f46565b5b600082013567ffffffffffffffff8111156134a9576134a8612f4b565b5b6134b584828501613068565b91505092915050565b600081519050919050565b600082825260208201905092915050565b60005b838110156134f85780820151818401526020810190506134dd565b60008484015250505050565b600061350f826134be565b61351981856134c9565b93506135298185602086016134da565b61353281612f5a565b840191505092915050565b6000608083016000830151848203600086015261355a8282613504565b915050602083015184820360208601526135748282613504565b9150506040830151848203604086015261358e8282613504565b915050606083015184820360608601526135a88282613504565b9150508091505092915050565b600060208201905081810360008301526135cf818461353d565b905092915050565b6135e0816130a0565b82525050565b60006101a08301600083015184820360008601526136048282613504565b9150506020830151848203602086015261361e8282613504565b915050604083015184820360408601526136388282613504565b915050606083015161364d60608601826135d7565b50608083015161366060808601826135d7565b5060a083015184820360a08601526136788282613504565b91505060c083015184820360c08601526136928282613504565b91505060e083015184820360e08601526136ac8282613504565b9150506101008301518482036101008601526136c88282613504565b9150506101208301518482036101208601526136e48282613504565b9150506101408301518482036101408601526137008282613504565b91505061016083015184820361016086015261371c8282613504565b9150506101808301518482036101808601526137388282613504565b9150508091505092915050565b6000602082019050818103600083015261375f81846135e6565b905092915050565b600060c0828403121561377d5761377c613096565b5b61378760c0612fcb565b9050600082013567ffffffffffffffff8111156137a7576137a661309b565b5b6137b384828501613068565b600083015250602082013567ffffffffffffffff8111156137d7576137d661309b565b5b6137e384828501613068565b602083015250604082013567ffffffffffffffff8111156138075761380661309b565b5b61381384828501613068565b604083015250606082013567ffffffffffffffff8111156138375761383661309b565b5b61384384828501613068565b606083015250608082013567ffffffffffffffff8111156138675761386661309b565b5b61387384828501613068565b60808301525060a082013567ffffffffffffffff8111156138975761389661309b565b5b6138a384828501613068565b60a08301525092915050565b600080604083850312156138c6576138c5612f46565b5b600083013567ffffffffffffffff8111156138e4576138e3612f4b565b5b6138f085828601613068565b925050602083013567ffffffffffffffff81111561391157613910612f4b565b5b61391d85828601613767565b9150509250929050565b6000819050919050565b61393a81613927565b811461394557600080fd5b50565b60008135905061395781613931565b92915050565b60006020828403121561397357613972612f46565b5b600061398184828501613948565b91505092915050565b61399381613927565b82525050565b60006020820190506139ae600083018461398a565b92915050565b600073ffffffffffffffffffffffffffffffffffffffff82169050919050565b60006139df826139b4565b9050919050565b6139ef816139d4565b81146139fa57600080fd5b50565b600081359050613a0c816139e6565b92915050565b60008060408385031215613a2957613a28612f46565b5b6000613a3785828601613948565b9250506020613a48858286016139fd565b9150509250929050565b600060c0830160008301518482036000860152613a6f8282613504565b91505060208301518482036020860152613a898282613504565b91505060408301518482036040860152613aa38282613504565b91505060608301518482036060860152613abd8282613504565b91505060808301518482036080860152613ad78282613504565b91505060a083015184820360a0860152613af18282613504565b9150508091505092915050565b60006020820190508181036000830152613b188184613a52565b905092915050565b600060808284031215613b3657613b35613096565b5b613b406080612fcb565b9050600082013567ffffffffffffffff811115613b6057613b5f61309b565b5b613b6c84828501613068565b600083015250602082013567ffffffffffffffff811115613b9057613b8f61309b565b5b613b9c84828501613068565b602083015250604082013567ffffffffffffffff811115613bc057613bbf61309b565b5b613bcc84828501613068565b604083015250606082013567ffffffffffffffff811115613bf057613bef61309b565b5b613bfc84828501613068565b60608301525092915050565b60008060408385031215613c1f57613c1e612f46565b5b600083013567ffffffffffffffff811115613c3d57613c3c612f4b565b5b613c4985828601613068565b925050602083013567ffffffffffffffff811115613c6a57613c69612f4b565b5b613c7685828601613b20565b9150509250929050565b600060e0830160008301518482036000860152613c9d8282613504565b91505060208301518482036020860152613cb78282613504565b91505060408301518482036040860152613cd18282613504565b91505060608301518482036060860152613ceb8282613504565b91505060808301518482036080860152613d058282613504565b91505060a083015184820360a0860152613d1f8282613504565b91505060c083015184820360c0860152613d398282613504565b9150508091505092915050565b60006020820190508181036000830152613d608184613c80565b905092915050565b613d718161343f565b82525050565b60006080830160008301518482036000860152613d948282613504565b91505060208301518482036020860152613dae8282613504565b91505060408301518482036040860152613dc88282613504565b9150506060830151613ddd6060860182613d68565b508091505092915050565b60006020820190508181036000830152613e028184613d77565b905092915050565b600060c08284031215613e2057613e1f613096565b5b613e2a60c0612fcb565b9050600082013567ffffffffffffffff811115613e4a57613e4961309b565b5b613e5684828501613068565b600083015250602082013567ffffffffffffffff811115613e7a57613e7961309b565b5b613e8684828501613068565b602083015250604082013567ffffffffffffffff811115613eaa57613ea961309b565b5b613eb684828501613068565b604083015250606082013567ffffffffffffffff811115613eda57613ed961309b565b5b613ee684828501613068565b606083015250608082013567ffffffffffffffff811115613f0a57613f0961309b565b5b613f1684828501613068565b60808301525060a082013567ffffffffffffffff811115613f3a57613f3961309b565b5b613f4684828501613068565b60a08301525092915050565b60008060408385031215613f6957613f68612f46565b5b600083013567ffffffffffffffff811115613f8757613f86612f4b565b5b613f9385828601613068565b925050602083013567ffffffffffffffff811115613fb457613fb3612f4b565b5b613fc085828601613e0a565b9150509250929050565b600060c0830160008301518482036000860152613fe78282613504565b915050602083015184820360208601526140018282613504565b9150506040830151848203604086015261401b8282613504565b915050606083015184820360608601526140358282613504565b9150506080830151848203608086015261404f8282613504565b91505060a083015184820360a08601526140698282613504565b9150508091505092915050565b600060208201905081810360008301526140908184613fca565b905092915050565b6140a18161343f565b81146140ac57600080fd5b50565b6000813590506140be81614098565b92915050565b6000608082840312156140da576140d9613096565b5b6140e46080612fcb565b9050600082013567ffffffffffffffff8111156141045761410361309b565b5b61411084828501613068565b600083015250602082013567ffffffffffffffff8111156141345761413361309b565b5b61414084828501613068565b602083015250604082013567ffffffffffffffff8111156141645761416361309b565b5b61417084828501613068565b6040830152506060614184848285016140af565b60608301525092915050565b600080604083850312156141a7576141a6612f46565b5b600083013567ffffffffffffffff8111156141c5576141c4612f4b565b5b6141d185828601613068565b925050602083013567ffffffffffffffff8111156141f2576141f1612f4b565b5b6141fe858286016140c4565b9150509250929050565b600060e0828403121561421e5761421d613096565b5b61422860e0612fcb565b9050600082013567ffffffffffffffff8111156142485761424761309b565b5b61425484828501613068565b600083015250602082013567ffffffffffffffff8111156142785761427761309b565b5b61428484828501613068565b602083015250604082013567ffffffffffffffff8111156142a8576142a761309b565b5b6142b484828501613068565b604083015250606082013567ffffffffffffffff8111156142d8576142d761309b565b5b6142e484828501613068565b606083015250608082013567ffffffffffffffff8111156143085761430761309b565b5b61431484828501613068565b60808301525060a082013567ffffffffffffffff8111156143385761433761309b565b5b61434484828501613068565b60a08301525060c082013567ffffffffffffffff8111156143685761436761309b565b5b61437484828501613068565b60c08301525092915050565b6000806040838503121561439757614396612f46565b5b600083013567ffffffffffffffff8111156143b5576143b4612f4b565b5b6143c185828601613068565b925050602083013567ffffffffffffffff8111156143e2576143e1612f4b565b5b6143ee85828601614208565b9150509250929050565b600081905092915050565b600061440e826134be565b61441881856143f8565b93506144288185602086016134da565b80840191505092915050565b60006144408284614403565b915081905092915050565b7f4e487b7100000000000000000000000000000000000000000000000000000000600052602260045260246000fd5b6000600282049050600182168061449257607f821691505b6020821081036144a5576144a461444b565b5b50919050565b60008190508160005260206000209050919050565b60006020601f8301049050919050565b600082821b905092915050565b60006008830261450d7fffffffffffffffffffffffffffffffffffffffffffffffffffffffffffffffff826144d0565b61451786836144d0565b95508019841693508086168417925050509392505050565b6000819050919050565b600061455461454f61454a846130a0565b61452f565b6130a0565b9050919050565b6000819050919050565b61456e83614539565b61458261457a8261455b565b8484546144dd565b825550505050565b600090565b61459761458a565b6145a2818484614565565b505050565b5b818110156145c6576145bb60008261458f565b6001810190506145a8565b5050565b601f82111561460b576145dc816144ab565b6145e5846144c0565b810160208510156145f4578190505b614608614600856144c0565b8301826145a7565b50505b505050565b600082821c905092915050565b600061462e60001984600802614610565b1980831691505092915050565b6000614647838361461d565b9150826002028217905092915050565b614660826134be565b67ffffffffffffffff81111561467957614678612f6b565b5b614683825461447a565b61468e8282856145ca565b600060209050601f8311600181146146c157600084156146af578287015190505b6146b9858261463b565b865550614721565b601f1984166146cf866144ab565b60005b828110156146f7578489015182556001820191506020850194506020810190506146d2565b868310156147145784890151614710601f89168261461d565b8355505b6001600288020188555050505b505050505050565b600082825260208201905092915050565b6000614745826134be565b61474f8185614729565b935061475f8185602086016134da565b61476881612f5a565b840191505092915050565b7f70726f63657373696e6700000000000000000000000000000000000000000000600082015250565b60006147a9600a83614729565b91506147b482614773565b602082019050919050565b600060408201905081810360008301526147d9818461473a565b905081810360208301526147ec8161479c565b905092915050565b7f6469737472696275746f72000000000000000000000000000000000000000000600082015250565b600061482a600b83614729565b9150614835826147f4565b602082019050919050565b6000604082019050818103600083015261485a818461473a565b9050818103602083015261486d8161481d565b905092915050565b7f73686f706b656570657200000000000000000000000000000000000000000000600082015250565b60006148ab600a83614729565b91506148b682614875565b602082019050919050565b600060408201905081810360008301526148db818461473a565b905081810360208301526148ee8161489e565b905092915050565b7f737570706c696572000000000000000000000000000000000000000000000000600082015250565b600061492c600883614729565b9150614937826148f6565b602082019050919050565b6000604082019050818103600083015261495c818461473a565b9050818103602083015261496f8161491f565b905092915050565b60006040820190508181036000830152614991818561473a565b905081810360208301526149a5818461473a565b90509392505050565b6149b7816139d4565b82525050565b60006040820190506149d260008301856149ae565b6149df602083018461398a565b939250505056fea2646970667358221220960c560a021d87c592a0de6255773fb446712af1c650d56408dbe406c8f2bca964736f6c634300081c0033",
  "linkReferences": {},
  "deployedLinkReferences": {}
}