{
  "_format": "hh-sol-artifact-1",
  "contractName": "TurmericSupplyChain",
  "sourceName": "contracts/TurmericSupplyChain.sol",
  "abi": [
    {
      "inputs": [
        {
          "internalType": "address",
          "name": "admin",
          "type": "address"
        }
      ],
      "stateMutability": "nonpayable",
      "type": "constructor"
    },
    {
      "inputs": [],
      "name": "AccessControlBadConfirmation",
      "type": "error"
    },
    {
      "inputs": [
        {
          "internalType": "address",
          "name": "account",
          "type": "address"
        },
        {
          "internalType": "bytes32",
          "name": "neededRole",
          "type": "bytes32"
        }
      ],
      "name": "AccessControlUnauthorizedAccount",
      "type": "error"
    },
    {
      "anonymous": false,
      "inputs": [
        {
          "indexed": false,
          "internalType": "string",
          "name": "farmer_id",
          "type": "string"
        },
        {
          "indexed": false,
          "internalType": "string",
          "name": "batch_id",
          "type": "string"
        }
      ],
      "name": "HarvestRecorded",
      "type": "event"
    },
    {
      "anonymous": false,
      "inputs": [
        {
          "indexed": true,
          "internalType": "string",
          "name": "farmer_id",
          "type": "string"
        },
        {
          "indexed": true,
          "internalType": "string",
          "name": "batch_id",
          "type": "string"
        }
      ],
      "name": "HarvestRegistered",
      "type": "event"
    },
    {
      "anonymous": false,
      "inputs": [
        {
          "indexed": true,
          "internalType": "string",
          "name": "batch_id",
          "type": "string"
        },
        {
          "indexed": false,
          "internalType": "uint256",
          "name": "count",
          "type": "uint256"
        }
      ],
      "name": "PacketCountUpdated",
      "type": "event"
    },
    {
      "anonymous": false,
      "inputs": [
        {
          "indexed": true,
          "internalType": "string",
          "name": "unique_packet_id",
          "type": "string"
        },
        {
          "indexed": false,
          "internalType": "string",
          "name": "batch_id",
          "type": "string"
        },
        {
          "indexed": false,
          "internalType": "string",
          "name": "current_stage",
          "type": "string"
        }
      ],
      "name": "PacketRegistered",
      "type": "event"
    },
    {
      "anonymous": false,
      "inputs": [
        {
          "indexed": true,
          "internalType": "string",
          "name": "unique_packet_id",
          "type": "string"
        },
        {
          "indexed": false,
          "internalType": "string",
          "name": "previous_stage",
          "type": "string"
        },
        {
          "indexed": false,
          "internalType": "string",
          "name": "new_stage",
          "type": "string"
        }
      ],
      "name": "PacketStageUpdated",
      "type": "event"
    },
    {
      "anonymous": false,
      "inputs": [
        {
          "indexed": true,
          "internalType": "bytes32",
          "name": "role",
          "type": "bytes32"
        },
        {
          "indexed": true,
          "internalType": "bytes32",
          "name": "previousAdminRole",
          "type": "bytes32"
        },
        {
          "indexed": true,
          "internalType": "bytes32",
          "name": "newAdminRole",
          "type": "bytes32"
        }
      ],
      "name": "RoleAdminChanged",
      "type": "event"
    },
    {
      "anonymous": false,
      "inputs": [
        {
          "indexed": true,
          "internalType": "bytes32",
          "name": "role",
          "type": "bytes32"
        },
        {
          "indexed": true,
          "internalType": "address",
          "name": "account",
          "type": "address"
        },
        {
          "indexed": true,
          "internalType": "address",
          "name": "sender",
          "type": "address"
        }
      ],
      "name": "RoleGranted",
      "type": "event"
    },
    {
      "anonymous": false,
      "inputs": [
        {
          "indexed": true,
          "internalType": "bytes32",
          "name": "role",
          "type": "bytes32"
        },
        {
          "indexed": true,
          "internalType": "address",
          "name": "account",
          "type": "address"
        },
        {
          "indexed": true,
          "internalType": "address",
          "name": "sender",
          "type": "address"
        }
      ],
      "name": "RoleRevoked",
      "type": "event"
    },
    {
      "inputs": [],
      "name": "DEFAULT_ADMIN_ROLE",
      "outputs": [
        {
          "internalType": "bytes32",
          "name": "",
          "type": "bytes32"
        }
      ],
      "stateMutability": "view",
      "type": "function"
    },
    {
      "inputs": [],
      "name": "DISTRIBUTOR_ROLE",
      "outputs": [
        {
          "internalType": "bytes32",
          "name": "",
          "type": "bytes32"
        }
      ],
      "stateMutability": "view",
      "type": "function"
    },
    {
      "inputs": [],
      "name": "FARMER_ROLE",
      "outputs": [
        {
          "internalType": "bytes32",
          "name": "",
          "type": "bytes32"
        }
      ],
      "stateMutability": "view",
      "type": "function"
    },
    {
      "inputs": [],
      "name": "PROCESSOR_ROLE",
      "outputs": [
        {
          "internalType": "bytes32",
          "name": "",
          "type": "bytes32"
        }
      ],
      "stateMutability": "view",
      "type": "function"
    },
    {
      "inputs": [],
      "name": "SHOPKEEPER_ROLE",
      "outputs": [
        {
          "internalType": "bytes32",
          "name": "",
          "type": "bytes32"
        }
      ],
      "stateMutability": "view",
      "type": "function"
    },
    {
      "inputs": [],
      "name": "SUPPLIER_ROLE",
      "outputs": [
        {
          "internalType": "bytes32",
          "name": "",
          "type": "bytes32"
        }
      ],
      "stateMutability": "view",
      "type": "function"
    },
    {
      "inputs": [
        {
          "internalType": "string",
          "name": "packet_id",
          "type": "string"
        },
        {
          "components": [
            {
              "internalType": "string",
              "name": "distributor_id",
              "type": "string"
            },
            {
              "internalType": "string",
              "name": "gps_coordinates",
              "type": "string"
            },
            {
              "internalType": "string",
              "name": "received_box_code",
              "type": "string"
            },
            {
              "internalType": "string",
              "name": "dispatch_date",
              "type": "string"
            },
            {
              "internalType": "string",
              "name": "sending_box_code",
              "type": "string"
            },
            {
              "internalType": "string",
              "name": "supplier_id",
              "type": "string"
            }
          ],
          "internalType": "struct TurmericSupplyChain.Distributor",
          "name": "d",
          "type": "tuple"
        }
      ],
      "name": "addDistributor",
      "outputs": [],
      "stateMutability": "nonpayable",
      "type": "function"
    },
    {
      "inputs": [
        {
          "internalType": "string",
          "name": "batch_id",
          "type": "string"
        },
        {
          "components": [
            {
              "internalType": "string",
              "name": "farmer_id",
              "type": "string"
            },
            {
              "internalType": "string",
              "name": "product_name",
              "type": "string"
            },
            {
              "internalType": "string",
              "name": "batch_id",
              "type": "string"
            },
            {
              "internalType": "string",
              "name": "harvest_date",
              "type": "string"
            },
            {
              "internalType": "string",
              "name": "gps_coordinates",
              "type": "string"
            },
            {
              "internalType": "string",
              "name": "fertilizer",
              "type": "string"
            },
            {
              "internalType": "string",
              "name": "organic_status",
              "type": "string"
            }
          ],
          "internalType": "struct TurmericSupplyChain.Harvest",
          "name": "h",
          "type": "tuple"
        }
      ],
      "name": "addHarvest",
      "outputs": [],
      "stateMutability": "nonpayable",
      "type": "function"
    },
    {
      "inputs": [
        {
          "internalType": "string",
          "name": "packet_id",
          "type": "string"
        },
        {
          "components": [
            {
              "internalType": "string",
              "name": "unique_packet_id",
              "type": "string"
            },
            {
              "internalType": "string",
              "name": "batch_id",
              "type": "string"
            },
            {
              "internalType": "string",
              "name": "current_stage",
              "type": "string"
            },
            {
              "internalType": "bool",
              "name": "exists",
              "type": "bool"
            }
          ],
          "internalType": "struct TurmericSupplyChain.Packet",
          "name": "p",
          "type": "tuple"
        }
      ],
      "name": "addPacket",
      "outputs": [],
      "stateMutability": "nonpayable",
      "type": "function"
    },
    {
      "inputs": [
        {
          "internalType": "string",
          "name": "batch_id",
          "type": "string"
        },
        {
          "components": [
            {
              "internalType": "string",
              "name": "batch_id",
              "type": "string"
            },
            {
              "internalType": "string",
              "name": "processing_gps",
              "type": "string"
            },
            {
              "internalType": "string",
              "name": "grinding_facility_name",
              "type": "string"
            },
            {
              "internalType": "uint256",
              "name": "moisture_content",
              "type": "uint256"
            },
            {
              "internalType": "uint256",
              "name": "curcumin_content",
              "type": "uint256"
            },
            {
              "internalType": "string",
              "name": "heavy_metals",
              "type": "string"
            },
            {
              "internalType": "string",
              "name": "physical_properties",
              "type": "string"
            },
            {
              "internalType": "string",
              "name": "packaging_date",
              "type": "string"
            },
            {
              "internalType": "string",
              "name": "packaging_unit",
              "type": "string"
            },
            {
              "internalType": "string",
              "name": "packet_id",
              "type": "string"
            },
            {
              "internalType": "string",
              "name": "expiry_date",
              "type": "string"
            },
            {
              "internalType": "string",
              "name": "sending_box_code",
              "type": "string"
            },
            {
              "internalType": "string",
              "name": "distributor_id",
              "type": "string"
            }
          ],
          "internalType": "struct TurmericSupplyChain.Processing",
          "name": "p",
          "type": "tuple"
        }
      ],
      "name": "addProcessing",
      "outputs": [],
      "stateMutability": "nonpayable",
      "type": "function"
    },
    {
      "inputs": [
        {
          "internalType": "string",
          "name": "packet_id",
          "type": "string"
        },
        {
          "components": [
            {
              "internalType": "string",
              "name": "shopkeeper_id",
              "type": "string"
            },
            {
              "internalType": "string",
              "name": "packet_id",
              "type": "string"
            },
            {
              "internalType": "string",
              "name": "gps_coordinates",
              "type": "string"
            },
            {
              "internalType": "string",
              "name": "date_received",
              "type": "string"
            }
          ],
          "internalType": "struct TurmericSupplyChain.Shopkeeper",
          "name": "sh",
          "type": "tuple"
        }
      ],
      "name": "addShopkeeper",
      "outputs": [],
      "stateMutability": "nonpayable",
      "type": "function"
    },
    {
      "inputs": [
        {
          "internalType": "string",
          "name": "packet_id",
          "type": "string"
        },
        {
          "components": [
            {
              "internalType": "string",
              "name": "supplier_id",
              "type": "string"
            },
            {
              "internalType": "string",
              "name": "received_box_code",
              "type": "string"
            },
            {
              "internalType": "string",
              "name": "gps_coordinates",
              "type": "string"
            },
            {
              "internalType": "string",
              "name": "receipt_date",
              "type": "string"
            },
            {
              "internalType": "string",
              "name": "shopkeeper_id",
              "type": "string"
            },
            {
              "internalType": "string",
              "name": "packet_id",
              "type": "string"
            }
          ],
          "internalType": "struct TurmericSupplyChain.Supplier",
          "name": "s",
          "type": "tuple"
        }
      ],
      "name": "addSupplier",
      "outputs": [],
      "stateMutability": "nonpayable",
      "type": "function"
    },
    {
      "inputs": [
        {
          "internalType": "string",
          "name": "batch_id",
          "type": "string"
        }
      ],
      "name": "batchExists",
      "outputs": [
        {
          "internalType": "bool",
          "name": "",
          "type": "bool"
        }
      ],
      "stateMutability": "view",
      "type": "function"
    },
    {
      "inputs": [
        {
          "internalType": "string",
          "name": "",
          "type": "string"
        }
      ],
      "name": "batchPacketCount",
      "outputs": [
        {
          "internalType": "uint256",
          "name": "",
          "type": "uint256"
        }
      ],
      "stateMutability": "view",
      "type": "function"
    },
    {
      "inputs": [
        {
          "internalType": "string",
          "name": "farmer_id",
          "type": "string"
        },
        {
          "internalType": "string",
          "name": "batch_id",
          "type": "string"
        }
      ],
      "name": "checkFarmerBatchExists",
      "outputs": [
        {
          "internalType": "bool",
          "name": "",
          "type": "bool"
        }
      ],
      "stateMutability": "view",
      "type": "function"
    },
    {
      "inputs": [
        {
          "internalType": "string",
          "name": "batch_id",
          "type": "string"
        }
      ],
      "name": "getBatchPacketCount",
      "outputs": [
        {
          "internalType": "uint256",
          "name": "",
          "type": "uint256"
        }
      ],
      "stateMutability": "view",
      "type": "function"
    },
    {
      "inputs": [
        {
          "internalType": "string",
          "name": "packet_id",
          "type": "string"
        }
      ],
      "name": "getDistributor",
      "outputs": [
        {
          "components": [
            {
              "internalType": "string",
              "name": "distributor_id",
              "type": "string"
            },
            {
              "internalType": "string",
              "name": "gps_coordinates",
              "type": "string"
            },
            {
              "internalType": "string",
              "name": "received_box_code",
              "type": "string"
            },
            {
              "internalType": "string",
              "name": "dispatch_date",
              "type": "string"
            },
            {
              "internalType": "string",
              "name": "sending_box_code",
              "type": "string"
            },
            {
              "internalType": "string",
              "name": "supplier_id",
              "type": "string"
            }
          ],
          "internalType": "struct TurmericSupplyChain.Distributor",
          "name": "",
          "type": "tuple"
        }
      ],
      "stateMutability": "view",
      "type": "function"
    },
    {
      "inputs": [
        {
          "internalType": "string",
          "name": "batch_id",
          "type": "string"
        }
      ],
      "name": "getHarvest",
      "outputs": [
        {
          "components": [
            {
              "internalType": "string",
              "name": "farmer_id",
              "type": "string"
            },
            {
              "internalType": "string",
              "name": "product_name",
              "type": "string"
            },
            {
              "internalType": "string",
              "name": "batch_id",
              "type": "string"
            },
            {
              "internalType": "string",
              "name": "harvest_date",
              "type": "string"
            },
            {
              "internalType": "string",
              "name": "gps_coordinates",
              "type": "string"
            },
            {
              "internalType": "string",
              "name": "fertilizer",
              "type": "string"
            },
            {
              "internalType": "string",
              "name": "organic_status",
              "type": "string"
            }
          ],
          "internalType": "struct TurmericSupplyChain.Harvest",
          "name": "",
          "type": "tuple"
        }
      ],
      "stateMutability": "view",
      "type": "function"
    },
    {
      "inputs": [
        {
          "internalType": "string",
          "name": "batch_id",
          "type": "string"
        }
      ],
      "name": "getHarvestForBatch",
      "outputs": [
        {
          "components": [
            {
              "internalType": "string",
              "name": "farmer_id",
              "type": "string"
            },
            {
              "internalType": "string",
              "name": "product_name",
              "type": "string"
            },
            {
              "internalType": "string",
              "name": "batch_id",
              "type": "string"
            },
            {
              "internalType": "string",
              "name": "harvest_date",
              "type": "string"
            },
            {
              "internalType": "string",
              "name": "gps_coordinates",
              "type": "string"
            },
            {
              "internalType": "string",
              "name": "fertilizer",
              "type": "string"
            },
            {
              "internalType": "string",
              "name": "organic_status",
              "type": "string"
            }
          ],
          "internalType": "struct TurmericSupplyChain.Harvest",
          "name": "",
          "type": "tuple"
        }
      ],
      "stateMutability": "view",
      "type": "function"
    },
    {
      "inputs": [
        {
          "internalType": "string",
          "name": "packet_id",
          "type": "string"
        }
      ],
      "name": "getPacket",
      "outputs": [
        {
          "components": [
            {
              "internalType": "string",
              "name": "unique_packet_id",
              "type": "string"
            },
            {
              "internalType": "string",
              "name": "batch_id",
              "type": "string"
            },
            {
              "internalType": "string",
              "name": "current_stage",
              "type": "string"
            },
            {
              "internalType": "bool",
              "name": "exists",
              "type": "bool"
            }
          ],
          "internalType": "struct TurmericSupplyChain.Packet",
          "name": "",
          "type": "tuple"
        }
      ],
      "stateMutability": "view",
      "type": "function"
    },
    {
      "inputs": [
        {
          "internalType": "string",
          "name": "batch_id",
          "type": "string"
        }
      ],
      "name": "getProcessing",
      "outputs": [
        {
          "components": [
            {
              "internalType": "string",
              "name": "batch_id",
              "type": "string"
            },
            {
              "internalType": "string",
              "name": "processing_gps",
              "type": "string"
            },
            {
              "internalType": "string",
              "name": "grinding_facility_name",
              "type": "string"
            },
            {
              "internalType": "uint256",
              "name": "moisture_content",
              "type": "uint256"
            },
            {
              "internalType": "uint256",
              "name": "curcumin_content",
              "type": "uint256"
            },
            {
              "internalType": "string",
              "name": "heavy_metals",
              "type": "string"
            },
            {
              "internalType": "string",
              "name": "physical_properties",
              "type": "string"
            },
            {
              "internalType": "string",
              "name": "packaging_date",
              "type": "string"
            },
            {
              "internalType": "string",
              "name": "packaging_unit",
              "type": "string"
            },
            {
              "internalType": "string",
              "name": "packet_id",
              "type": "string"
            },
            {
              "internalType": "string",
              "name": "expiry_date",
              "type": "string"
            },
            {
              "internalType": "string",
              "name": "sending_box_code",
              "type": "string"
            },
            {
              "internalType": "string",
              "name": "distributor_id",
              "type": "string"
            }
          ],
          "internalType": "struct TurmericSupplyChain.Processing",
          "name": "",
          "type": "tuple"
        }
      ],
      "stateMutability": "view",
      "type": "function"
    },
    {
      "inputs": [
        {
          "internalType": "bytes32",
          "name": "role",
          "type": "bytes32"
        }
      ],
      "name": "getRoleAdmin",
      "outputs": [
        {
          "internalType": "bytes32",
          "name": "",
          "type": "bytes32"
        }
      ],
      "stateMutability": "view",
      "type": "function"
    },
    {
      "inputs": [
        {
          "internalType": "string",
          "name": "packet_id",
          "type": "string"
        }
      ],
      "name": "getShopkeeper",
      "outputs": [
        {
          "components": [
            {
              "internalType": "string",
              "name": "shopkeeper_id",
              "type": "string"
            },
            {
              "internalType": "string",
              "name": "packet_id",
              "type": "string"
            },
            {
              "internalType": "string",
              "name": "gps_coordinates",
              "type": "string"
            },
            {
              "internalType": "string",
              "name": "date_received",
              "type": "string"
            }
          ],
          "internalType": "struct TurmericSupplyChain.Shopkeeper",
          "name": "",
          "type": "tuple"
        }
      ],
      "stateMutability": "view",
      "type": "function"
    },
    {
      "inputs": [
        {
          "internalType": "string",
          "name": "packet_id",
          "type": "string"
        }
      ],
      "name": "getSupplier",
      "outputs": [
        {
          "components": [
            {
              "internalType": "string",
              "name": "supplier_id",
              "type": "string"
            },
            {
              "internalType": "string",
              "name": "received_box_code",
              "type": "string"
            },
            {
              "internalType": "string",
              "name": "gps_coordinates",
              "type": "string"
            },
            {
              "internalType": "string",
              "name": "receipt_date",
              "type": "string"
            },
            {
              "internalType": "string",
              "name": "shopkeeper_id",
              "type": "string"
            },
            {
              "internalType": "string",
              "name": "packet_id",
              "type": "string"
            }
          ],
          "internalType": "struct TurmericSupplyChain.Supplier",
          "name": "",
          "type": "tuple"
        }
      ],
      "stateMutability": "view",
      "type": "function"
    },
    {
      "inputs": [
        {
          "internalType": "bytes32",
          "name": "role",
          "type": "bytes32"
        },
        {
          "internalType": "address",
          "name": "account",
          "type": "address"
        }
      ],
      "name": "grantRole",
      "outputs": [],
      "stateMutability": "nonpayable",
      "type": "function"
    },
    {
      "inputs": [
        {
          "internalType": "bytes32",
          "name": "role",
          "type": "bytes32"
        },
        {
          "internalType": "address",
          "name": "account",
          "type": "address"
        }
      ],
      "name": "hasRole",
      "outputs": [
        {
          "internalType": "bool",
          "name": "",
          "type": "bool"
        }
      ],
      "stateMutability": "view",
      "type": "function"
    },
    {
      "inputs": [
        {
          "internalType": "string",
          "name": "packet_id",
          "type": "string"
        }
      ],
      "name": "packetIdExists",
      "outputs": [
        {
          "internalType": "bool",
          "name": "",
          "type": "bool"
        }
      ],
      "stateMutability": "view",
      "type": "function"
    },
    {
      "inputs": [
        {
          "internalType": "bytes32",
          "name": "role",
          "type": "bytes32"
        },
        {
          "internalType": "address",
          "name": "callerConfirmation",
          "type": "address"
        }
      ],
      "name": "renounceRole",
      "outputs": [],
      "stateMutability": "nonpayable",
      "type": "function"
    },
    {
      "inputs": [
        {
          "internalType": "bytes32",
          "name": "role",
          "type": "bytes32"
        },
        {
          "internalType": "address",
          "name": "account",
          "type": "address"
        }
      ],
      "name": "revokeRole",
      "outputs": [],
      "stateMutability": "nonpayable",
      "type": "function"
    },
    {
      "inputs": [
        {
          "internalType": "bytes4",
          "name": "interfaceId",
          "type": "bytes4"
        }
      ],
      "name": "supportsInterface",
      "outputs": [
        {
          "internalType": "bool",
          "name": "",
          "type": "bool"
        }
      ],
      "stateMutability": "view",
      "type": "function"
    }
  ],
  "bytecode": "0x608060405234801561001057600080fd5b506040516159e13803806159e18339818101604052810190610032919061021e565b6100456000801b8261004c60201b60201c565b505061024b565b600061005e838361014960201b60201c565b61013e57600160008085815260200190815260200160002060000160008473ffffffffffffffffffffffffffffffffffffffff1673ffffffffffffffffffffffffffffffffffffffff16815260200190815260200160002060006101000a81548160ff0219169083151502179055506100db6101b360201b60201c565b73ffffffffffffffffffffffffffffffffffffffff168273ffffffffffffffffffffffffffffffffffffffff16847f2f8788117e7eff1d82e926ec794901d17c78024a50270940304540a733656f0d60405160405180910390a460019050610143565b600090505b92915050565b600080600084815260200190815260200160002060000160008373ffffffffffffffffffffffffffffffffffffffff1673ffffffffffffffffffffffffffffffffffffffff16815260200190815260200160002060009054906101000a900460ff16905092915050565b600033905090565b600080fd5b600073ffffffffffffffffffffffffffffffffffffffff82169050919050565b60006101eb826101c0565b9050919050565b6101fb816101e0565b811461020657600080fd5b50565b600081519050610218816101f2565b92915050565b600060208284031215610234576102336101bb565b5b600061024284828501610209565b91505092915050565b6157878061025a6000396000f3fe608060405234801561001057600080fd5b50600436106101d95760003560e01c806391d1485411610104578063b57eddf8116100a2578063ea701ea011610071578063ea701ea0146105d4578063f0bd87cc14610604578063f394397014610622578063f99d54da14610640576101d9565b8063b57eddf814610550578063d547741f1461056c578063d759a5ba14610588578063e7903988146105a4576101d9565b806398ad0642116100de57806398ad0642146104b4578063a217fddf146104e4578063a29508fc14610502578063b54c2a2814610520576101d9565b806391d1485414610438578063931c8a901461046857806398a9abad14610498576101d9565b8063248a9ca31161017c5780635888cc9a1161014b5780635888cc9a1461039e5780635c4798e2146103ba57806372c9379b146103ea5780638222bdb21461041a576101d9565b8063248a9ca3146103065780632f2ff15d1461033657806336568abe146103525780634743c2cb1461036e576101d9565b80630a64f5a6116101b85780630a64f5a61461025a5780630ec4a56b1461028a57806310370baa146102ba5780632074177a146102d6576101d9565b8062bc3e0d146101de57806301ffc9a7146101fa5780630565dec11461022a575b600080fd5b6101f860048036038101906101f39190613d31565b61065e565b005b610214600480360381019061020f9190613e01565b610b16565b6040516102219190613e49565b60405180910390f35b610244600480360381019061023f9190613e64565b610b90565b6040516102519190613fa4565b60405180910390f35b610274600480360381019061026f9190613fc6565b610e10565b6040516102819190613e49565b60405180910390f35b6102a4600480360381019061029f9190613e64565b610e6c565b6040516102b191906141ac565b60405180910390f35b6102d460048036038101906102cf9190614316565b6114ff565b005b6102f060048036038101906102eb9190613e64565b611769565b6040516102fd919061439d565b60405180910390f35b610320600480360381019061031b91906143ee565b611797565b60405161032d919061442a565b60405180910390f35b610350600480360381019061034b91906144a3565b6117b6565b005b61036c600480360381019061036791906144a3565b6117d8565b005b61038860048036038101906103839190613e64565b611853565b604051610395919061458f565b60405180910390f35b6103b860048036038101906103b39190614699565b611bf7565b005b6103d460048036038101906103cf9190613e64565b611e35565b6040516103e1919061439d565b60405180910390f35b61040460048036038101906103ff9190613e64565b611e5d565b60405161041191906147d7565b60405180910390f35b610422612293565b60405161042f919061442a565b60405180910390f35b610452600480360381019061044d91906144a3565b6122b7565b60405161045f9190613e49565b60405180910390f35b610482600480360381019061047d9190613e64565b612321565b60405161048f9190614879565b60405180910390f35b6104b260048036038101906104ad91906149e3565b61252a565b005b6104ce60048036038101906104c99190613e64565b612794565b6040516104db9190614b07565b60405180910390f35b6104ec612b38565b6040516104f9919061442a565b60405180910390f35b61050a612b3f565b604051610517919061442a565b60405180910390f35b61053a60048036038101906105359190613e64565b612b63565b60405161054791906147d7565b60405180910390f35b61056a60048036038101906105659190614c21565b612f99565b005b610586600480360381019061058191906144a3565b6130a7565b005b6105a2600480360381019061059d9190614e11565b6130c9565b005b6105be60048036038101906105b99190613e64565b613438565b6040516105cb9190613e49565b60405180910390f35b6105ee60048036038101906105e99190613e64565b61346d565b6040516105fb9190613e49565b60405180910390f35b61060c6134a2565b604051610619919061442a565b60405180910390f35b61062a6134c6565b604051610637919061442a565b60405180910390f35b6106486134ea565b604051610655919061442a565b60405180910390f35b7fe61decff6e4a5c6b5a3d3cbd28f882e595173563b49353ce5f31dba2de7f05ee6106888161350e565b8280519060200120826000015180519060200120146106dc576040517f08c379a00000000000000000000000000000000000000000000000000000000081526004016106d390614ee6565b60405180910390fd5b600b8261012001516040516106f19190614f42565b908152602001604051809103902060009054906101000a900460ff161561074d576040517f08c379a000000000000000000000000000000000000000000000000000000000815260040161074490614fa5565b60405180910390fd5b600a8360405161075d9190614f42565b908152602001604051809103902060009054906101000a900460ff166107b8576040517f08c379a00000000000000000000000000000000000000000000000000000000081526004016107af90615037565b60405180910390fd5b60016007846040516107ca9190614f42565b9081526020016040518091039020546107e39190615086565b6007846040516107f39190614f42565b9081526020016040518091039020819055506001600b83610120015160405161081c9190614f42565b908152602001604051809103902060006101000a81548160ff021916908315150217905550816003846040516108529190614f42565b9081526020016040518091039020600082015181600001908161087591906152c6565b50602082015181600101908161088b91906152c6565b5060408201518160020190816108a191906152c6565b50606082015181600301556080820151816004015560a08201518160050190816108cb91906152c6565b5060c08201518160060190816108e191906152c6565b5060e08201518160070190816108f791906152c6565b5061010082015181600801908161090e91906152c6565b5061012082015181600901908161092591906152c6565b5061014082015181600a01908161093c91906152c6565b5061016082015181600b01908161095391906152c6565b5061018082015181600c01908161096a91906152c6565b50905050604051806080016040528083610120015181526020018481526020016040518060400160405280600a81526020017f70726f63657373696e670000000000000000000000000000000000000000000081525081526020016001151581525060018361012001516040516109e19190614f42565b90815260200160405180910390206000820151816000019081610a0491906152c6565b506020820151816001019081610a1a91906152c6565b506040820151816002019081610a3091906152c6565b5060608201518160030160006101000a81548160ff021916908315150217905550905050816101200151604051610a679190614f42565b60405180910390207f21519163c0a8e059c8e23e0ab06f425fdc81bc5628279bfbac9f2440aec70bcc84604051610a9e919061541d565b60405180910390a282604051610ab49190614f42565b60405180910390207f6512af60840c5f9ffc8b00f850b1b58fe0f13a3e76e33ce842efe6264a16e82d600785604051610aed9190614f42565b908152602001604051809103902054604051610b09919061439d565b60405180910390a2505050565b60007f7965db0b000000000000000000000000000000000000000000000000000000007bffffffffffffffffffffffffffffffffffffffffffffffffffffffff1916827bffffffffffffffffffffffffffffffffffffffffffffffffffffffff19161480610b895750610b8882613522565b5b9050919050565b610b986137c8565b600682604051610ba89190614f42565b9081526020016040518091039020604051806080016040529081600082018054610bd1906150e9565b80601f0160208091040260200160405190810160405280929190818152602001828054610bfd906150e9565b8015610c4a5780601f10610c1f57610100808354040283529160200191610c4a565b820191906000526020600020905b815481529060010190602001808311610c2d57829003601f168201915b50505050508152602001600182018054610c63906150e9565b80601f0160208091040260200160405190810160405280929190818152602001828054610c8f906150e9565b8015610cdc5780601f10610cb157610100808354040283529160200191610cdc565b820191906000526020600020905b815481529060010190602001808311610cbf57829003601f168201915b50505050508152602001600282018054610cf5906150e9565b80601f0160208091040260200160405190810160405280929190818152602001828054610d21906150e9565b8015610d6e5780601f10610d4357610100808354040283529160200191610d6e565b820191906000526020600020905b815481529060010190602001808311610d5157829003601f168201915b50505050508152602001600382018054610d87906150e9565b80601f0160208091040260200160405190810160405280929190818152602001828054610db3906150e9565b8015610e005780601f10610dd557610100808354040283529160200191610e00565b820191906000526020600020905b815481529060010190602001808311610de357829003601f168201915b5050505050815250509050919050565b6000808383604051602001610e2692919061549e565b6040516020818303038152906040529050600c81604051610e479190614f42565b908152602001604051809103902060009054906101000a900460ff1691505092915050565b610e746137f0565b600382604051610e849190614f42565b9081526020016040518091039020604051806101a0016040529081600082018054610eae906150e9565b80601f0160208091040260200160405190810160405280929190818152602001828054610eda906150e9565b8015610f275780601f10610efc57610100808354040283529160200191610f27565b820191906000526020600020905b815481529060010190602001808311610f0a57829003601f168201915b50505050508152602001600182018054610f40906150e9565b80601f0160208091040260200160405190810160405280929190818152602001828054610f6c906150e9565b8015610fb95780601f10610f8e57610100808354040283529160200191610fb9565b820191906000526020600020905b815481529060010190602001808311610f9c57829003601f168201915b50505050508152602001600282018054610fd2906150e9565b80601f0160208091040260200160405190810160405280929190818152602001828054610ffe906150e9565b801561104b5780601f106110205761010080835404028352916020019161104b565b820191906000526020600020905b81548152906001019060200180831161102e57829003601f168201915b505050505081526020016003820154815260200160048201548152602001600582018054611078906150e9565b80601f01602080910402602001604051908101604052809291908181526020018280546110a4906150e9565b80156110f15780601f106110c6576101008083540402835291602001916110f1565b820191906000526020600020905b8154815290600101906020018083116110d457829003601f168201915b5050505050815260200160068201805461110a906150e9565b80601f0160208091040260200160405190810160405280929190818152602001828054611136906150e9565b80156111835780601f1061115857610100808354040283529160200191611183565b820191906000526020600020905b81548152906001019060200180831161116657829003601f168201915b5050505050815260200160078201805461119c906150e9565b80601f01602080910402602001604051908101604052809291908181526020018280546111c8906150e9565b80156112155780601f106111ea57610100808354040283529160200191611215565b820191906000526020600020905b8154815290600101906020018083116111f857829003601f168201915b5050505050815260200160088201805461122e906150e9565b80601f016020809104026020016040519081016040528092919081815260200182805461125a906150e9565b80156112a75780601f1061127c576101008083540402835291602001916112a7565b820191906000526020600020905b81548152906001019060200180831161128a57829003601f168201915b505050505081526020016009820180546112c0906150e9565b80601f01602080910402602001604051908101604052809291908181526020018280546112ec906150e9565b80156113395780601f1061130e57610100808354040283529160200191611339565b820191906000526020600020905b81548152906001019060200180831161131c57829003601f168201915b50505050508152602001600a82018054611352906150e9565b80601f016020809104026020016040519081016040528092919081815260200182805461137e906150e9565b80156113cb5780601f106113a0576101008083540402835291602001916113cb565b820191906000526020600020905b8154815290600101906020018083116113ae57829003601f168201915b50505050508152602001600b820180546113e4906150e9565b80601f0160208091040260200160405190810160405280929190818152602001828054611410906150e9565b801561145d5780601f106114325761010080835404028352916020019161145d565b820191906000526020600020905b81548152906001019060200180831161144057829003601f168201915b50505050508152602001600c82018054611476906150e9565b80601f01602080910402602001604051908101604052809291908181526020018280546114a2906150e9565b80156114ef5780601f106114c4576101008083540402835291602001916114ef565b820191906000526020600020905b8154815290600101906020018083116114d257829003601f168201915b5050505050815250509050919050565b7ffbd454f36a7e1a388bd6fc3ab10d434aa4578f811acbbcf33afb1c697486313c6115298161350e565b8160048460405161153a9190614f42565b9081526020016040518091039020600082015181600001908161155d91906152c6565b50602082015181600101908161157391906152c6565b50604082015181600201908161158991906152c6565b50606082015181600301908161159f91906152c6565b5060808201518160040190816115b591906152c6565b5060a08201518160050190816115cb91906152c6565b509050506001836040516115df9190614f42565b908152602001604051809103902060030160009054906101000a900460ff16156117645760006001846040516116159190614f42565b90815260200160405180910390206002018054611631906150e9565b80601f016020809104026020016040519081016040528092919081815260200182805461165d906150e9565b80156116aa5780601f1061167f576101008083540402835291602001916116aa565b820191906000526020600020905b81548152906001019060200180831161168d57829003601f168201915b505050505090506040518060400160405280600b81526020017f6469737472696275746f720000000000000000000000000000000000000000008152506001856040516116f79190614f42565b9081526020016040518091039020600201908161171491906152c6565b50836040516117239190614f42565b60405180910390207fe16ad7ae21fa154ae9292dc4f86747ad006df43be1178bedaf3a896b66a59d398260405161175a9190615519565b60405180910390a2505b505050565b6007818051602081018201805184825260208301602085012081835280955050505050506000915090505481565b6000806000838152602001908152602001600020600101549050919050565b6117bf82611797565b6117c88161350e565b6117d2838361358c565b50505050565b6117e061367d565b73ffffffffffffffffffffffffffffffffffffffff168173ffffffffffffffffffffffffffffffffffffffff1614611844576040517f6697b23200000000000000000000000000000000000000000000000000000000815260040160405180910390fd5b61184e8282613685565b505050565b61185b613858565b60048260405161186b9190614f42565b90815260200160405180910390206040518060c0016040529081600082018054611894906150e9565b80601f01602080910402602001604051908101604052809291908181526020018280546118c0906150e9565b801561190d5780601f106118e25761010080835404028352916020019161190d565b820191906000526020600020905b8154815290600101906020018083116118f057829003601f168201915b50505050508152602001600182018054611926906150e9565b80601f0160208091040260200160405190810160405280929190818152602001828054611952906150e9565b801561199f5780601f106119745761010080835404028352916020019161199f565b820191906000526020600020905b81548152906001019060200180831161198257829003601f168201915b505050505081526020016002820180546119b8906150e9565b80601f01602080910402602001604051908101604052809291908181526020018280546119e4906150e9565b8015611a315780601f10611a0657610100808354040283529160200191611a31565b820191906000526020600020905b815481529060010190602001808311611a1457829003601f168201915b50505050508152602001600382018054611a4a906150e9565b80601f0160208091040260200160405190810160405280929190818152602001828054611a76906150e9565b8015611ac35780601f10611a9857610100808354040283529160200191611ac3565b820191906000526020600020905b815481529060010190602001808311611aa657829003601f168201915b50505050508152602001600482018054611adc906150e9565b80601f0160208091040260200160405190810160405280929190818152602001828054611b08906150e9565b8015611b555780601f10611b2a57610100808354040283529160200191611b55565b820191906000526020600020905b815481529060010190602001808311611b3857829003601f168201915b50505050508152602001600582018054611b6e906150e9565b80601f0160208091040260200160405190810160405280929190818152602001828054611b9a906150e9565b8015611be75780601f10611bbc57610100808354040283529160200191611be7565b820191906000526020600020905b815481529060010190602001808311611bca57829003601f168201915b5050505050815250509050919050565b7fb717b2b458e4f190ac4e55e3aa1d4d28e207cea5e79511d5cfe0f23587abf2ff611c218161350e565b81600684604051611c329190614f42565b90815260200160405180910390206000820151816000019081611c5591906152c6565b506020820151816001019081611c6b91906152c6565b506040820151816002019081611c8191906152c6565b506060820151816003019081611c9791906152c6565b50905050600183604051611cab9190614f42565b908152602001604051809103902060030160009054906101000a900460ff1615611e30576000600184604051611ce19190614f42565b90815260200160405180910390206002018054611cfd906150e9565b80601f0160208091040260200160405190810160405280929190818152602001828054611d29906150e9565b8015611d765780601f10611d4b57610100808354040283529160200191611d76565b820191906000526020600020905b815481529060010190602001808311611d5957829003601f168201915b505050505090506040518060400160405280600a81526020017f73686f706b656570657200000000000000000000000000000000000000000000815250600185604051611dc39190614f42565b90815260200160405180910390206002019081611de091906152c6565b5083604051611def9190614f42565b60405180910390207fe16ad7ae21fa154ae9292dc4f86747ad006df43be1178bedaf3a896b66a59d3982604051611e26919061559a565b60405180910390a2505b505050565b6000600782604051611e479190614f42565b9081526020016040518091039020549050919050565b611e6561388e565b600282604051611e759190614f42565b90815260200160405180910390206040518060e0016040529081600082018054611e9e906150e9565b80601f0160208091040260200160405190810160405280929190818152602001828054611eca906150e9565b8015611f175780601f10611eec57610100808354040283529160200191611f17565b820191906000526020600020905b815481529060010190602001808311611efa57829003601f168201915b50505050508152602001600182018054611f30906150e9565b80601f0160208091040260200160405190810160405280929190818152602001828054611f5c906150e9565b8015611fa95780601f10611f7e57610100808354040283529160200191611fa9565b820191906000526020600020905b815481529060010190602001808311611f8c57829003601f168201915b50505050508152602001600282018054611fc2906150e9565b80601f0160208091040260200160405190810160405280929190818152602001828054611fee906150e9565b801561203b5780601f106120105761010080835404028352916020019161203b565b820191906000526020600020905b81548152906001019060200180831161201e57829003601f168201915b50505050508152602001600382018054612054906150e9565b80601f0160208091040260200160405190810160405280929190818152602001828054612080906150e9565b80156120cd5780601f106120a2576101008083540402835291602001916120cd565b820191906000526020600020905b8154815290600101906020018083116120b057829003601f168201915b505050505081526020016004820180546120e6906150e9565b80601f0160208091040260200160405190810160405280929190818152602001828054612112906150e9565b801561215f5780601f106121345761010080835404028352916020019161215f565b820191906000526020600020905b81548152906001019060200180831161214257829003601f168201915b50505050508152602001600582018054612178906150e9565b80601f01602080910402602001604051908101604052809291908181526020018280546121a4906150e9565b80156121f15780601f106121c6576101008083540402835291602001916121f1565b820191906000526020600020905b8154815290600101906020018083116121d457829003601f168201915b5050505050815260200160068201805461220a906150e9565b80601f0160208091040260200160405190810160405280929190818152602001828054612236906150e9565b80156122835780601f1061225857610100808354040283529160200191612283565b820191906000526020600020905b81548152906001019060200180831161226657829003601f168201915b5050505050815250509050919050565b7fe61decff6e4a5c6b5a3d3cbd28f882e595173563b49353ce5f31dba2de7f05ee81565b600080600084815260200190815260200160002060000160008373ffffffffffffffffffffffffffffffffffffffff1673ffffffffffffffffffffffffffffffffffffffff16815260200190815260200160002060009054906101000a900460ff16905092915050565b6123296138cb565b6001826040516123399190614f42565b9081526020016040518091039020604051806080016040529081600082018054612362906150e9565b80601f016020809104026020016040519081016040528092919081815260200182805461238e906150e9565b80156123db5780601f106123b0576101008083540402835291602001916123db565b820191906000526020600020905b8154815290600101906020018083116123be57829003601f168201915b505050505081526020016001820180546123f4906150e9565b80601f0160208091040260200160405190810160405280929190818152602001828054612420906150e9565b801561246d5780601f106124425761010080835404028352916020019161246d565b820191906000526020600020905b81548152906001019060200180831161245057829003601f168201915b50505050508152602001600282018054612486906150e9565b80601f01602080910402602001604051908101604052809291908181526020018280546124b2906150e9565b80156124ff5780601f106124d4576101008083540402835291602001916124ff565b820191906000526020600020905b8154815290600101906020018083116124e257829003601f168201915b505050505081526020016003820160009054906101000a900460ff1615151515815250509050919050565b7fd1ae8bbdabd60d63e418b84f5ad6f9cba90092c9816d7724d85f0d4e4bea2c606125548161350e565b816005846040516125659190614f42565b9081526020016040518091039020600082015181600001908161258891906152c6565b50602082015181600101908161259e91906152c6565b5060408201518160020190816125b491906152c6565b5060608201518160030190816125ca91906152c6565b5060808201518160040190816125e091906152c6565b5060a08201518160050190816125f691906152c6565b5090505060018360405161260a9190614f42565b908152602001604051809103902060030160009054906101000a900460ff161561278f5760006001846040516126409190614f42565b9081526020016040518091039020600201805461265c906150e9565b80601f0160208091040260200160405190810160405280929190818152602001828054612688906150e9565b80156126d55780601f106126aa576101008083540402835291602001916126d5565b820191906000526020600020905b8154815290600101906020018083116126b857829003601f168201915b505050505090506040518060400160405280600881526020017f737570706c6965720000000000000000000000000000000000000000000000008152506001856040516127229190614f42565b9081526020016040518091039020600201908161273f91906152c6565b508360405161274e9190614f42565b60405180910390207fe16ad7ae21fa154ae9292dc4f86747ad006df43be1178bedaf3a896b66a59d3982604051612785919061561b565b60405180910390a2505b505050565b61279c6138f5565b6005826040516127ac9190614f42565b90815260200160405180910390206040518060c00160405290816000820180546127d5906150e9565b80601f0160208091040260200160405190810160405280929190818152602001828054612801906150e9565b801561284e5780601f106128235761010080835404028352916020019161284e565b820191906000526020600020905b81548152906001019060200180831161283157829003601f168201915b50505050508152602001600182018054612867906150e9565b80601f0160208091040260200160405190810160405280929190818152602001828054612893906150e9565b80156128e05780601f106128b5576101008083540402835291602001916128e0565b820191906000526020600020905b8154815290600101906020018083116128c357829003601f168201915b505050505081526020016002820180546128f9906150e9565b80601f0160208091040260200160405190810160405280929190818152602001828054612925906150e9565b80156129725780601f1061294757610100808354040283529160200191612972565b820191906000526020600020905b81548152906001019060200180831161295557829003601f168201915b5050505050815260200160038201805461298b906150e9565b80601f01602080910402602001604051908101604052809291908181526020018280546129b7906150e9565b8015612a045780601f106129d957610100808354040283529160200191612a04565b820191906000526020600020905b8154815290600101906020018083116129e757829003601f168201915b50505050508152602001600482018054612a1d906150e9565b80601f0160208091040260200160405190810160405280929190818152602001828054612a49906150e9565b8015612a965780601f10612a6b57610100808354040283529160200191612a96565b820191906000526020600020905b815481529060010190602001808311612a7957829003601f168201915b50505050508152602001600582018054612aaf906150e9565b80601f0160208091040260200160405190810160405280929190818152602001828054612adb906150e9565b8015612b285780601f10612afd57610100808354040283529160200191612b28565b820191906000526020600020905b815481529060010190602001808311612b0b57829003601f168201915b5050505050815250509050919050565b6000801b81565b7fd1ae8bbdabd60d63e418b84f5ad6f9cba90092c9816d7724d85f0d4e4bea2c6081565b612b6b61388e565b600282604051612b7b9190614f42565b90815260200160405180910390206040518060e0016040529081600082018054612ba4906150e9565b80601f0160208091040260200160405190810160405280929190818152602001828054612bd0906150e9565b8015612c1d5780601f10612bf257610100808354040283529160200191612c1d565b820191906000526020600020905b815481529060010190602001808311612c0057829003601f168201915b50505050508152602001600182018054612c36906150e9565b80601f0160208091040260200160405190810160405280929190818152602001828054612c62906150e9565b8015612caf5780601f10612c8457610100808354040283529160200191612caf565b820191906000526020600020905b815481529060010190602001808311612c9257829003601f168201915b50505050508152602001600282018054612cc8906150e9565b80601f0160208091040260200160405190810160405280929190818152602001828054612cf4906150e9565b8015612d415780601f10612d1657610100808354040283529160200191612d41565b820191906000526020600020905b815481529060010190602001808311612d2457829003601f168201915b50505050508152602001600382018054612d5a906150e9565b80601f0160208091040260200160405190810160405280929190818152602001828054612d86906150e9565b8015612dd35780601f10612da857610100808354040283529160200191612dd3565b820191906000526020600020905b815481529060010190602001808311612db657829003601f168201915b50505050508152602001600482018054612dec906150e9565b80601f0160208091040260200160405190810160405280929190818152602001828054612e18906150e9565b8015612e655780601f10612e3a57610100808354040283529160200191612e65565b820191906000526020600020905b815481529060010190602001808311612e4857829003601f168201915b50505050508152602001600582018054612e7e906150e9565b80601f0160208091040260200160405190810160405280929190818152602001828054612eaa906150e9565b8015612ef75780601f10612ecc57610100808354040283529160200191612ef7565b820191906000526020600020905b815481529060010190602001808311612eda57829003601f168201915b50505050508152602001600682018054612f10906150e9565b80601f0160208091040260200160405190810160405280929190818152602001828054612f3c906150e9565b8015612f895780601f10612f5e57610100808354040283529160200191612f89565b820191906000526020600020905b815481529060010190602001808311612f6c57829003601f168201915b5050505050815250509050919050565b7fe61decff6e4a5c6b5a3d3cbd28f882e595173563b49353ce5f31dba2de7f05ee612fc38161350e565b81600184604051612fd49190614f42565b90815260200160405180910390206000820151816000019081612ff791906152c6565b50602082015181600101908161300d91906152c6565b50604082015181600201908161302391906152c6565b5060608201518160030160006101000a81548160ff02191690831515021790555090505081600001516040516130599190614f42565b60405180910390207f21519163c0a8e059c8e23e0ab06f425fdc81bc5628279bfbac9f2440aec70bcc8360200151846040015160405161309a929190615650565b60405180910390a2505050565b6130b082611797565b6130b98161350e565b6130c38383613685565b50505050565b7f7c6181838a71a779e445600d4c6ecbe16bacf2b3c5bda69c29fada66d1b645d16130f38161350e565b828051906020012082604001518051906020012014613147576040517f08c379a000000000000000000000000000000000000000000000000000000000815260040161313e90614ee6565b60405180910390fd5b600082600001518460405160200161316092919061549e565b6040516020818303038152906040529050600c816040516131819190614f42565b908152602001604051809103902060009054906101000a900460ff16156131dd576040517f08c379a00000000000000000000000000000000000000000000000000000000081526004016131d4906156f9565b60405180910390fd5b6001600984600001516040516131f39190614f42565b908152602001604051809103902060006101000a81548160ff0219169083151502179055506001600a8560405161322a9190614f42565b908152602001604051809103902060006101000a81548160ff0219169083151502179055506001600884600001516040516132659190614f42565b9081526020016040518091039020856040516132819190614f42565b908152602001604051809103902060006101000a81548160ff0219169083151502179055506001600c826040516132b89190614f42565b908152602001604051809103902060006101000a81548160ff021916908315150217905550826002856040516132ee9190614f42565b9081526020016040518091039020600082015181600001908161331191906152c6565b50602082015181600101908161332791906152c6565b50604082015181600201908161333d91906152c6565b50606082015181600301908161335391906152c6565b50608082015181600401908161336991906152c6565b5060a082015181600501908161337f91906152c6565b5060c082015181600601908161339591906152c6565b50905050836040516133a79190614f42565b604051809103902083600001516040516133c19190614f42565b60405180910390207ff43ae1e78f288625eef7def48266f3a4aed85e77fc10d2da3291bfb7e3ca2be660405160405180910390a37f7f19b779b9e7f5829782df699000776f02575d943aa746bda0d7a3f27237fffc83600001518560405161342a929190615650565b60405180910390a150505050565b6000600a8260405161344a9190614f42565b908152602001604051809103902060009054906101000a900460ff169050919050565b6000600b8260405161347f9190614f42565b908152602001604051809103902060009054906101000a900460ff169050919050565b7ffbd454f36a7e1a388bd6fc3ab10d434aa4578f811acbbcf33afb1c697486313c81565b7f7c6181838a71a779e445600d4c6ecbe16bacf2b3c5bda69c29fada66d1b645d181565b7fb717b2b458e4f190ac4e55e3aa1d4d28e207cea5e79511d5cfe0f23587abf2ff81565b61351f8161351a61367d565b613777565b50565b60007f01ffc9a7000000000000000000000000000000000000000000000000000000007bffffffffffffffffffffffffffffffffffffffffffffffffffffffff1916827bffffffffffffffffffffffffffffffffffffffffffffffffffffffff1916149050919050565b600061359883836122b7565b61367257600160008085815260200190815260200160002060000160008473ffffffffffffffffffffffffffffffffffffffff1673ffffffffffffffffffffffffffffffffffffffff16815260200190815260200160002060006101000a81548160ff02191690831515021790555061360f61367d565b73ffffffffffffffffffffffffffffffffffffffff168273ffffffffffffffffffffffffffffffffffffffff16847f2f8788117e7eff1d82e926ec794901d17c78024a50270940304540a733656f0d60405160405180910390a460019050613677565b600090505b92915050565b600033905090565b600061369183836122b7565b1561376c57600080600085815260200190815260200160002060000160008473ffffffffffffffffffffffffffffffffffffffff1673ffffffffffffffffffffffffffffffffffffffff16815260200190815260200160002060006101000a81548160ff02191690831515021790555061370961367d565b73ffffffffffffffffffffffffffffffffffffffff168273ffffffffffffffffffffffffffffffffffffffff16847ff6391f5c32d9c69d2a47ea670b442974b53935d1edc7fd64eb21e047a839171b60405160405180910390a460019050613771565b600090505b92915050565b61378182826122b7565b6137c45780826040517fe2517d3f0000000000000000000000000000000000000000000000000000000081526004016137bb929190615728565b60405180910390fd5b5050565b6040518060800160405280606081526020016060815260200160608152602001606081525090565b604051806101a00160405280606081526020016060815260200160608152602001600081526020016000815260200160608152602001606081526020016060815260200160608152602001606081526020016060815260200160608152602001606081525090565b6040518060c001604052806060815260200160608152602001606081526020016060815260200160608152602001606081525090565b6040518060e00160405280606081526020016060815260200160608152602001606081526020016060815260200160608152602001606081525090565b60405180608001604052806060815260200160608152602001606081526020016000151581525090565b6040518060c001604052806060815260200160608152602001606081526020016060815260200160608152602001606081525090565b6000604051905090565b600080fd5b600080fd5b600080fd5b600080fd5b6000601f19601f8301169050919050565b7f4e487b7100000000000000000000000000000000000000000000000000000000600052604160045260246000fd5b61399282613949565b810181811067ffffffffffffffff821117156139b1576139b061395a565b5b80604052505050565b60006139c461392b565b90506139d08282613989565b919050565b600067ffffffffffffffff8211156139f0576139ef61395a565b5b6139f982613949565b9050602081019050919050565b82818337600083830152505050565b6000613a28613a23846139d5565b6139ba565b905082815260208101848484011115613a4457613a43613944565b5b613a4f848285613a06565b509392505050565b600082601f830112613a6c57613a6b61393f565b5b8135613a7c848260208601613a15565b91505092915050565b600080fd5b600080fd5b6000819050919050565b613aa281613a8f565b8114613aad57600080fd5b50565b600081359050613abf81613a99565b92915050565b60006101a08284031215613adc57613adb613a85565b5b613ae76101a06139ba565b9050600082013567ffffffffffffffff811115613b0757613b06613a8a565b5b613b1384828501613a57565b600083015250602082013567ffffffffffffffff811115613b3757613b36613a8a565b5b613b4384828501613a57565b602083015250604082013567ffffffffffffffff811115613b6757613b66613a8a565b5b613b7384828501613a57565b6040830152506060613b8784828501613ab0565b6060830152506080613b9b84828501613ab0565b60808301525060a082013567ffffffffffffffff811115613bbf57613bbe613a8a565b5b613bcb84828501613a57565b60a08301525060c082013567ffffffffffffffff811115613bef57613bee613a8a565b5b613bfb84828501613a57565b60c08301525060e082013567ffffffffffffffff811115613c1f57613c1e613a8a565b5b613c2b84828501613a57565b60e08301525061010082013567ffffffffffffffff811115613c5057613c4f613a8a565b5b613c5c84828501613a57565b6101008301525061012082013567ffffffffffffffff811115613c8257613c81613a8a565b5b613c8e84828501613a57565b6101208301525061014082013567ffffffffffffffff811115613cb457613cb3613a8a565b5b613cc084828501613a57565b6101408301525061016082013567ffffffffffffffff811115613ce657613ce5613a8a565b5b613cf284828501613a57565b6101608301525061018082013567ffffffffffffffff811115613d1857613d17613a8a565b5b613d2484828501613a57565b6101808301525092915050565b60008060408385031215613d4857613d47613935565b5b600083013567ffffffffffffffff811115613d6657613d6561393a565b5b613d7285828601613a57565b925050602083013567ffffffffffffffff811115613d9357613d9261393a565b5b613d9f85828601613ac5565b9150509250929050565b60007fffffffff0000000000000000000000000000000000000000000000000000000082169050919050565b613dde81613da9565b8114613de957600080fd5b50565b600081359050613dfb81613dd5565b92915050565b600060208284031215613e1757613e16613935565b5b6000613e2584828501613dec565b91505092915050565b60008115159050919050565b613e4381613e2e565b82525050565b6000602082019050613e5e6000830184613e3a565b92915050565b600060208284031215613e7a57613e79613935565b5b600082013567ffffffffffffffff811115613e9857613e9761393a565b5b613ea484828501613a57565b91505092915050565b600081519050919050565b600082825260208201905092915050565b60005b83811015613ee7578082015181840152602081019050613ecc565b60008484015250505050565b6000613efe82613ead565b613f088185613eb8565b9350613f18818560208601613ec9565b613f2181613949565b840191505092915050565b60006080830160008301518482036000860152613f498282613ef3565b91505060208301518482036020860152613f638282613ef3565b91505060408301518482036040860152613f7d8282613ef3565b91505060608301518482036060860152613f978282613ef3565b9150508091505092915050565b60006020820190508181036000830152613fbe8184613f2c565b905092915050565b60008060408385031215613fdd57613fdc613935565b5b600083013567ffffffffffffffff811115613ffb57613ffa61393a565b5b61400785828601613a57565b925050602083013567ffffffffffffffff8111156140285761402761393a565b5b61403485828601613a57565b9150509250929050565b61404781613a8f565b82525050565b60006101a083016000830151848203600086015261406b8282613ef3565b915050602083015184820360208601526140858282613ef3565b9150506040830151848203604086015261409f8282613ef3565b91505060608301516140b4606086018261403e565b5060808301516140c7608086018261403e565b5060a083015184820360a08601526140df8282613ef3565b91505060c083015184820360c08601526140f98282613ef3565b91505060e083015184820360e08601526141138282613ef3565b91505061010083015184820361010086015261412f8282613ef3565b91505061012083015184820361012086015261414b8282613ef3565b9150506101408301518482036101408601526141678282613ef3565b9150506101608301518482036101608601526141838282613ef3565b91505061018083015184820361018086015261419f8282613ef3565b9150508091505092915050565b600060208201905081810360008301526141c6818461404d565b905092915050565b600060c082840312156141e4576141e3613a85565b5b6141ee60c06139ba565b9050600082013567ffffffffffffffff81111561420e5761420d613a8a565b5b61421a84828501613a57565b600083015250602082013567ffffffffffffffff81111561423e5761423d613a8a565b5b61424a84828501613a57565b602083015250604082013567ffffffffffffffff81111561426e5761426d613a8a565b5b61427a84828501613a57565b604083015250606082013567ffffffffffffffff81111561429e5761429d613a8a565b5b6142aa84828501613a57565b606083015250608082013567ffffffffffffffff8111156142ce576142cd613a8a565b5b6142da84828501613a57565b60808301525060a082013567ffffffffffffffff8111156142fe576142fd613a8a565b5b61430a84828501613a57565b60a08301525092915050565b6000806040838503121561432d5761432c613935565b5b600083013567ffffffffffffffff81111561434b5761434a61393a565b5b61435785828601613a57565b925050602083013567ffffffffffffffff8111156143785761437761393a565b5b614384858286016141ce565b9150509250929050565b61439781613a8f565b82525050565b60006020820190506143b2600083018461438e565b92915050565b6000819050919050565b6143cb816143b8565b81146143d657600080fd5b50565b6000813590506143e8816143c2565b92915050565b60006020828403121561440457614403613935565b5b6000614412848285016143d9565b91505092915050565b614424816143b8565b82525050565b600060208201905061443f600083018461441b565b92915050565b600073ffffffffffffffffffffffffffffffffffffffff82169050919050565b600061447082614445565b9050919050565b61448081614465565b811461448b57600080fd5b50565b60008135905061449d81614477565b92915050565b600080604083850312156144ba576144b9613935565b5b60006144c8858286016143d9565b92505060206144d98582860161448e565b9150509250929050565b600060c08301600083015184820360008601526145008282613ef3565b9150506020830151848203602086015261451a8282613ef3565b915050604083015184820360408601526145348282613ef3565b9150506060830151848203606086015261454e8282613ef3565b915050608083015184820360808601526145688282613ef3565b91505060a083015184820360a08601526145828282613ef3565b9150508091505092915050565b600060208201905081810360008301526145a981846144e3565b905092915050565b6000608082840312156145c7576145c6613a85565b5b6145d160806139ba565b9050600082013567ffffffffffffffff8111156145f1576145f0613a8a565b5b6145fd84828501613a57565b600083015250602082013567ffffffffffffffff81111561462157614620613a8a565b5b61462d84828501613a57565b602083015250604082013567ffffffffffffffff81111561465157614650613a8a565b5b61465d84828501613a57565b604083015250606082013567ffffffffffffffff81111561468157614680613a8a565b5b61468d84828501613a57565b60608301525092915050565b600080604083850312156146b0576146af613935565b5b600083013567ffffffffffffffff8111156146ce576146cd61393a565b5b6146da85828601613a57565b925050602083013567ffffffffffffffff8111156146fb576146fa61393a565b5b614707858286016145b1565b9150509250929050565b600060e083016000830151848203600086015261472e8282613ef3565b915050602083015184820360208601526147488282613ef3565b915050604083015184820360408601526147628282613ef3565b9150506060830151848203606086015261477c8282613ef3565b915050608083015184820360808601526147968282613ef3565b91505060a083015184820360a08601526147b08282613ef3565b91505060c083015184820360c08601526147ca8282613ef3565b9150508091505092915050565b600060208201905081810360008301526147f18184614711565b905092915050565b61480281613e2e565b82525050565b600060808301600083015184820360008601526148258282613ef3565b9150506020830151848203602086015261483f8282613ef3565b915050604083015184820360408601526148598282613ef3565b915050606083015161486e60608601826147f9565b508091505092915050565b600060208201905081810360008301526148938184614808565b905092915050565b600060c082840312156148b1576148b0613a85565b5b6148bb60c06139ba565b9050600082013567ffffffffffffffff8111156148db576148da613a8a565b5b6148e784828501613a57565b600083015250602082013567ffffffffffffffff81111561490b5761490a613a8a565b5b61491784828501613a57565b602083015250604082013567ffffffffffffffff81111561493b5761493a613a8a565b5b61494784828501613a57565b604083015250606082013567ffffffffffffffff81111561496b5761496a613a8a565b5b61497784828501613a57565b606083015250608082013567ffffffffffffffff81111561499b5761499a613a8a565b5b6149a784828501613a57565b60808301525060a082013567ffffffffffffffff8111156149cb576149ca613a8a565b5b6149d784828501613a57565b60a08301525092915050565b600080604083850312156149fa576149f9613935565b5b600083013567ffffffffffffffff811115614a1857614a1761393a565b5b614a2485828601613a57565b925050602083013567ffffffffffffffff811115614a4557614a4461393a565b5b614a518582860161489b565b9150509250929050565b600060c0830160008301518482036000860152614a788282613ef3565b91505060208301518482036020860152614a928282613ef3565b91505060408301518482036040860152614aac8282613ef3565b91505060608301518482036060860152614ac68282613ef3565b91505060808301518482036080860152614ae08282613ef3565b91505060a083015184820360a0860152614afa8282613ef3565b9150508091505092915050565b60006020820190508181036000830152614b218184614a5b565b905092915050565b614b3281613e2e565b8114614b3d57600080fd5b50565b600081359050614b4f81614b29565b92915050565b600060808284031215614b6b57614b6a613a85565b5b614b7560806139ba565b9050600082013567ffffffffffffffff811115614b9557614b94613a8a565b5b614ba184828501613a57565b600083015250602082013567ffffffffffffffff811115614bc557614bc4613a8a565b5b614bd184828501613a57565b602083015250604082013567ffffffffffffffff811115614bf557614bf4613a8a565b5b614c0184828501613a57565b6040830152506060614c1584828501614b40565b60608301525092915050565b60008060408385031215614c3857614c37613935565b5b600083013567ffffffffffffffff811115614c5657614c5561393a565b5b614c6285828601613a57565b925050602083013567ffffffffffffffff811115614c8357614c8261393a565b5b614c8f85828601614b55565b9150509250929050565b600060e08284031215614caf57614cae613a85565b5b614cb960e06139ba565b9050600082013567ffffffffffffffff811115614cd957614cd8613a8a565b5b614ce584828501613a57565b600083015250602082013567ffffffffffffffff811115614d0957614d08613a8a565b5b614d1584828501613a57565b602083015250604082013567ffffffffffffffff811115614d3957614d38613a8a565b5b614d4584828501613a57565b604083015250606082013567ffffffffffffffff811115614d6957614d68613a8a565b5b614d7584828501613a57565b606083015250608082013567ffffffffffffffff811115614d9957614d98613a8a565b5b614da584828501613a57565b60808301525060a082013567ffffffffffffffff811115614dc957614dc8613a8a565b5b614dd584828501613a57565b60a08301525060c082013567ffffffffffffffff811115614df957614df8613a8a565b5b614e0584828501613a57565b60c08301525092915050565b60008060408385031215614e2857614e27613935565b5b600083013567ffffffffffffffff811115614e4657614e4561393a565b5b614e5285828601613a57565b925050602083013567ffffffffffffffff811115614e7357614e7261393a565b5b614e7f85828601614c99565b9150509250929050565b600082825260208201905092915050565b7f4261746368204944206d69736d61746368000000000000000000000000000000600082015250565b6000614ed0601183614e89565b9150614edb82614e9a565b602082019050919050565b60006020820190508181036000830152614eff81614ec3565b9050919050565b600081905092915050565b6000614f1c82613ead565b614f268185614f06565b9350614f36818560208601613ec9565b80840191505092915050565b6000614f4e8284614f11565b915081905092915050565b7f5061636b657420494420616c7265616479206578697374730000000000000000600082015250565b6000614f8f601883614e89565b9150614f9a82614f59565b602082019050919050565b60006020820190508181036000830152614fbe81614f82565b9050919050565b7f426174636820494420646f6573206e6f742065786973742e204861727665737460008201527f206d75737420626520726567697374657265642066697273742e000000000000602082015250565b6000615021603a83614e89565b915061502c82614fc5565b604082019050919050565b6000602082019050818103600083015261505081615014565b9050919050565b7f4e487b7100000000000000000000000000000000000000000000000000000000600052601160045260246000fd5b600061509182613a8f565b915061509c83613a8f565b92508282019050808211156150b4576150b3615057565b5b92915050565b7f4e487b7100000000000000000000000000000000000000000000000000000000600052602260045260246000fd5b6000600282049050600182168061510157607f821691505b602082108103615114576151136150ba565b5b50919050565b60008190508160005260206000209050919050565b60006020601f8301049050919050565b600082821b905092915050565b60006008830261517c7fffffffffffffffffffffffffffffffffffffffffffffffffffffffffffffffff8261513f565b615186868361513f565b95508019841693508086168417925050509392505050565b6000819050919050565b60006151c36151be6151b984613a8f565b61519e565b613a8f565b9050919050565b6000819050919050565b6151dd836151a8565b6151f16151e9826151ca565b84845461514c565b825550505050565b600090565b6152066151f9565b6152118184846151d4565b505050565b5b818110156152355761522a6000826151fe565b600181019050615217565b5050565b601f82111561527a5761524b8161511a565b6152548461512f565b81016020851015615263578190505b61527761526f8561512f565b830182615216565b50505b505050565b600082821c905092915050565b600061529d6000198460080261527f565b1980831691505092915050565b60006152b6838361528c565b9150826002028217905092915050565b6152cf82613ead565b67ffffffffffffffff8111156152e8576152e761395a565b5b6152f282546150e9565b6152fd828285615239565b600060209050601f831160018114615330576000841561531e578287015190505b61532885826152aa565b865550615390565b601f19841661533e8661511a565b60005b8281101561536657848901518255600182019150602085019450602081019050615341565b86831015615383578489015161537f601f89168261528c565b8355505b6001600288020188555050505b505050505050565b60006153a382613ead565b6153ad8185614e89565b93506153bd818560208601613ec9565b6153c681613949565b840191505092915050565b7f70726f63657373696e6700000000000000000000000000000000000000000000600082015250565b6000615407600a83614e89565b9150615412826153d1565b602082019050919050565b600060408201905081810360008301526154378184615398565b9050818103602083015261544a816153fa565b905092915050565b7f5f00000000000000000000000000000000000000000000000000000000000000600082015250565b6000615488600183614f06565b915061549382615452565b600182019050919050565b60006154aa8285614f11565b91506154b58261547b565b91506154c18284614f11565b91508190509392505050565b7f6469737472696275746f72000000000000000000000000000000000000000000600082015250565b6000615503600b83614e89565b915061550e826154cd565b602082019050919050565b600060408201905081810360008301526155338184615398565b90508181036020830152615546816154f6565b905092915050565b7f73686f706b656570657200000000000000000000000000000000000000000000600082015250565b6000615584600a83614e89565b915061558f8261554e565b602082019050919050565b600060408201905081810360008301526155b48184615398565b905081810360208301526155c781615577565b905092915050565b7f737570706c696572000000000000000000000000000000000000000000000000600082015250565b6000615605600883614e89565b9150615610826155cf565b602082019050919050565b600060408201905081810360008301526156358184615398565b90508181036020830152615648816155f8565b905092915050565b6000604082019050818103600083015261566a8185615398565b9050818103602083015261567e8184615398565b90509392505050565b7f426174636820494420616c72656164792065786973747320666f72207468697360008201527f206661726d657200000000000000000000000000000000000000000000000000602082015250565b60006156e3602783614e89565b91506156ee82615687565b604082019050919050565b60006020820190508181036000830152615712816156d6565b9050919050565b61572281614465565b82525050565b600060408201905061573d6000830185615719565b61574a602083018461441b565b939250505056fea264697066735822122023a437212d189d29a64c90daa5439337f0fb1fe6e6ed4c50e248a4cc29ac828b64736f6c634300081c0033",
  "linkReferences": {},
  "deployedLinkReferences": {}
}